{
  "abi": [
    {
      "inputs": [],
      "stateMutability": "nonpayable",
      "type": "constructor"
    },
    {
      "inputs": [],
      "name": "BuyTickets",
      "outputs": [],
      "stateMutability": "payable",
      "type": "function"
    },
    {
      "inputs": [],
      "name": "CurrentWinningReward",
      "outputs": [
        {
          "internalType": "uint256",
          "name": "",
          "type": "uint256"
        }
      ],
      "stateMutability": "view",
      "type": "function"
    },
    {
      "inputs": [],
      "name": "DrawWinnerTicket",
      "outputs": [],
      "stateMutability": "nonpayable",
      "type": "function"
    },
    {
      "inputs": [],
      "name": "IsWinner",
      "outputs": [
        {
          "internalType": "bool",
          "name": "",
          "type": "bool"
        }
      ],
      "stateMutability": "view",
      "type": "function"
    },
    {
      "inputs": [],
      "name": "RefundAll",
      "outputs": [],
      "stateMutability": "nonpayable",
      "type": "function"
    },
    {
      "inputs": [],
      "name": "RemainingTickets",
      "outputs": [
        {
          "internalType": "uint256",
          "name": "",
          "type": "uint256"
        }
      ],
      "stateMutability": "view",
      "type": "function"
    },
    {
      "inputs": [],
      "name": "WithdrawCommission",
      "outputs": [],
      "stateMutability": "nonpayable",
      "type": "function"
    },
    {
      "inputs": [],
      "name": "WithdrawWinnings",
      "outputs": [],
      "stateMutability": "nonpayable",
      "type": "function"
    },
    {
      "inputs": [],
      "name": "checkWinningsAmount",
      "outputs": [
        {
          "internalType": "uint256",
          "name": "",
          "type": "uint256"
        }
      ],
      "stateMutability": "view",
      "type": "function"
    },
    {
      "inputs": [],
      "name": "duration",
      "outputs": [
        {
          "internalType": "uint256",
          "name": "",
          "type": "uint256"
        }
      ],
      "stateMutability": "view",
      "type": "function"
    },
    {
      "inputs": [],
      "name": "expiration",
      "outputs": [
        {
          "internalType": "uint256",
          "name": "",
          "type": "uint256"
        }
      ],
      "stateMutability": "view",
      "type": "function"
    },
    {
      "inputs": [],
      "name": "getTickets",
      "outputs": [
        {
          "internalType": "address[]",
          "name": "",
          "type": "address[]"
        }
      ],
      "stateMutability": "view",
      "type": "function"
    },
    {
      "inputs": [
        {
          "internalType": "address",
          "name": "addr",
          "type": "address"
        }
      ],
      "name": "getWinningsForAddress",
      "outputs": [
        {
          "internalType": "uint256",
          "name": "",
          "type": "uint256"
        }
      ],
      "stateMutability": "view",
      "type": "function"
    },
    {
      "inputs": [],
      "name": "lastWinner",
      "outputs": [
        {
          "internalType": "address",
          "name": "",
          "type": "address"
        }
      ],
      "stateMutability": "view",
      "type": "function"
    },
    {
      "inputs": [],
      "name": "lastWinnerAmount",
      "outputs": [
        {
          "internalType": "uint256",
          "name": "",
          "type": "uint256"
        }
      ],
      "stateMutability": "view",
      "type": "function"
    },
    {
      "inputs": [],
      "name": "lotteryOperator",
      "outputs": [
        {
          "internalType": "address",
          "name": "",
          "type": "address"
        }
      ],
      "stateMutability": "view",
      "type": "function"
    },
    {
      "inputs": [],
      "name": "maxTickets",
      "outputs": [
        {
          "internalType": "uint256",
          "name": "",
          "type": "uint256"
        }
      ],
      "stateMutability": "view",
      "type": "function"
    },
    {
      "inputs": [],
      "name": "operatorTotalCommission",
      "outputs": [
        {
          "internalType": "uint256",
          "name": "",
          "type": "uint256"
        }
      ],
      "stateMutability": "view",
      "type": "function"
    },
    {
      "inputs": [],
      "name": "restartDraw",
      "outputs": [],
      "stateMutability": "nonpayable",
      "type": "function"
    },
    {
      "inputs": [],
      "name": "ticketCommission",
      "outputs": [
        {
          "internalType": "uint256",
          "name": "",
          "type": "uint256"
        }
      ],
      "stateMutability": "view",
      "type": "function"
    },
    {
      "inputs": [],
      "name": "ticketPrice",
      "outputs": [
        {
          "internalType": "uint256",
          "name": "",
          "type": "uint256"
        }
      ],
      "stateMutability": "view",
      "type": "function"
    },
    {
      "inputs": [
        {
          "internalType": "uint256",
          "name": "",
          "type": "uint256"
        }
      ],
      "name": "tickets",
      "outputs": [
        {
          "internalType": "address",
          "name": "",
          "type": "address"
        }
      ],
      "stateMutability": "view",
      "type": "function"
    },
    {
      "inputs": [
        {
          "internalType": "address",
          "name": "",
          "type": "address"
        }
      ],
      "name": "winnings",
      "outputs": [
        {
          "internalType": "uint256",
          "name": "",
          "type": "uint256"
        }
      ],
      "stateMutability": "view",
      "type": "function"
    }
  ],
  "devdoc": {
    "kind": "dev",
    "methods": {},
    "version": 1
  },
  "evm": {
    "assembly": "    /* \"Lottery.sol\":122:4749  contract Lottery {... */\n  mstore(0x40, 0x80)\n    /* \"Lottery.sol\":641:642  0 */\n  0x00\n    /* \"Lottery.sol\":600:642  uint256 public operatorTotalCommission = 0 */\n  0x02\n  sstore\n    /* \"Lottery.sol\":1344:1452  constructor() {... */\n  callvalue\n  dup1\n  iszero\n  tag_1\n  jumpi\n  0x00\n  dup1\n  revert\ntag_1:\n  pop\n    /* \"Lottery.sol\":1368:1383  lotteryOperator */\n  0x01\n    /* \"Lottery.sol\":1368:1396  lotteryOperator = msg.sender */\n  dup1\n  sload\n  not(sub(shl(0xa0, 0x01), 0x01))\n  and\n    /* \"Lottery.sol\":1386:1396  msg.sender */\n  caller\n    /* \"Lottery.sol\":1368:1396  lotteryOperator = msg.sender */\n  or\n  swap1\n  sstore\n    /* \"Lottery.sol\":1419:1445  block.timestamp + duration */\n  tag_4\n    /* \"Lottery.sol\":398:404  5 days */\n  0x069780\n    /* \"Lottery.sol\":1419:1434  block.timestamp */\n  timestamp\n    /* \"Lottery.sol\":1419:1445  block.timestamp + duration */\n  tag_5\n  jump\t// in\ntag_4:\n    /* \"Lottery.sol\":1406:1416  expiration */\n  0x00\n    /* \"Lottery.sol\":1406:1445  expiration = block.timestamp + duration */\n  sstore\n    /* \"Lottery.sol\":122:4749  contract Lottery {... */\n  jump(tag_7)\n    /* \"#utility.yul\":14:236   */\ntag_5:\n    /* \"#utility.yul\":79:88   */\n  dup1\n  dup3\n  add\n    /* \"#utility.yul\":100:110   */\n  dup1\n  dup3\n  gt\n    /* \"#utility.yul\":97:230   */\n  iszero\n  tag_9\n  jumpi\n    /* \"#utility.yul\":152:162   */\n  0x4e487b71\n    /* \"#utility.yul\":147:150   */\n  0xe0\n    /* \"#utility.yul\":143:163   */\n  shl\n    /* \"#utility.yul\":140:141   */\n  0x00\n    /* \"#utility.yul\":133:164   */\n  mstore\n    /* \"#utility.yul\":187:191   */\n  0x11\n    /* \"#utility.yul\":184:185   */\n  0x04\n    /* \"#utility.yul\":177:192   */\n  mstore\n    /* \"#utility.yul\":215:219   */\n  0x24\n    /* \"#utility.yul\":212:213   */\n  0x00\n    /* \"#utility.yul\":205:220   */\n  revert\n    /* \"#utility.yul\":97:230   */\ntag_9:\n    /* \"#utility.yul\":14:236   */\n  swap3\n  swap2\n  pop\n  pop\n  jump\t// out\ntag_7:\n    /* \"Lottery.sol\":122:4749  contract Lottery {... */\n  dataSize(sub_0)\n  dup1\n  dataOffset(sub_0)\n  0x00\n  codecopy\n  0x00\n  return\nstop\n\nsub_0: assembly {\n        /* \"Lottery.sol\":122:4749  contract Lottery {... */\n      mstore(0x40, 0x80)\n      jumpi(tag_1, lt(calldatasize, 0x04))\n      shr(0xe0, calldataload(0x00))\n      dup1\n      0x71827b7b\n      gt\n      tag_25\n      jumpi\n      dup1\n      0xba946d79\n      gt\n      tag_26\n      jumpi\n      dup1\n      0xea3a1499\n      gt\n      tag_27\n      jumpi\n      dup1\n      0xea3a1499\n      eq\n      tag_22\n      jumpi\n      dup1\n      0xf2613269\n      eq\n      tag_23\n      jumpi\n      dup1\n      0xfe188184\n      eq\n      tag_24\n      jumpi\n      0x00\n      dup1\n      revert\n    tag_27:\n      dup1\n      0xba946d79\n      eq\n      tag_19\n      jumpi\n      dup1\n      0xc6944fa0\n      eq\n      tag_20\n      jumpi\n      dup1\n      0xdd64e534\n      eq\n      tag_21\n      jumpi\n      0x00\n      dup1\n      revert\n    tag_26:\n      dup1\n      0x96c85ef3\n      gt\n      tag_28\n      jumpi\n      dup1\n      0x96c85ef3\n      eq\n      tag_16\n      jumpi\n      dup1\n      0x9b894703\n      eq\n      tag_17\n      jumpi\n      dup1\n      0xa88f4672\n      eq\n      tag_18\n      jumpi\n      0x00\n      dup1\n      revert\n    tag_28:\n      dup1\n      0x71827b7b\n      eq\n      tag_13\n      jumpi\n      dup1\n      0x91d8b14e\n      eq\n      tag_14\n      jumpi\n      dup1\n      0x93a563b5\n      eq\n      tag_15\n      jumpi\n      0x00\n      dup1\n      revert\n    tag_25:\n      dup1\n      0x4665096d\n      gt\n      tag_29\n      jumpi\n      dup1\n      0x50b44712\n      gt\n      tag_30\n      jumpi\n      dup1\n      0x50b44712\n      eq\n      tag_10\n      jumpi\n      dup1\n      0x5a58acdd\n      eq\n      tag_11\n      jumpi\n      dup1\n      0x6032a4f9\n      eq\n      tag_12\n      jumpi\n      0x00\n      dup1\n      revert\n    tag_30:\n      dup1\n      0x4665096d\n      eq\n      tag_7\n      jumpi\n      dup1\n      0x4788af7c\n      eq\n      tag_8\n      jumpi\n      dup1\n      0x4ed02622\n      eq\n      tag_9\n      jumpi\n      0x00\n      dup1\n      revert\n    tag_29:\n      dup1\n      0x0fb5a6b4\n      gt\n      tag_31\n      jumpi\n      dup1\n      0x0fb5a6b4\n      eq\n      tag_4\n      jumpi\n      dup1\n      0x1209b1f6\n      eq\n      tag_5\n      jumpi\n      dup1\n      0x35580df2\n      eq\n      tag_6\n      jumpi\n      0x00\n      dup1\n      revert\n    tag_31:\n      dup1\n      0x06f7f3bf\n      eq\n      tag_2\n      jumpi\n      dup1\n      0x0789c607\n      eq\n      tag_3\n      jumpi\n    tag_1:\n      0x00\n      dup1\n      revert\n        /* \"Lottery.sol\":745:776  uint256 public lastWinnerAmount */\n    tag_2:\n      callvalue\n      dup1\n      iszero\n      tag_32\n      jumpi\n      0x00\n      dup1\n      revert\n    tag_32:\n      pop\n      tag_33\n      sload(0x04)\n      dup2\n      jump\n    tag_33:\n      mload(0x40)\n        /* \"#utility.yul\":160:185   */\n      swap1\n      dup2\n      mstore\n        /* \"#utility.yul\":148:150   */\n      0x20\n        /* \"#utility.yul\":133:151   */\n      add\n        /* \"Lottery.sol\":745:776  uint256 public lastWinnerAmount */\n    tag_35:\n      mload(0x40)\n      dup1\n      swap2\n      sub\n      swap1\n      return\n        /* \"Lottery.sol\":3360:3568  function checkWinningsAmount() public view returns (uint256) {... */\n    tag_3:\n      callvalue\n      dup1\n      iszero\n      tag_37\n      jumpi\n      0x00\n      dup1\n      revert\n    tag_37:\n      pop\n        /* \"Lottery.sol\":3464:3474  msg.sender */\n      caller\n        /* \"Lottery.sol\":3412:3419  uint256 */\n      0x00\n        /* \"Lottery.sol\":3512:3528  winnings[winner] */\n      swap1\n      dup2\n      mstore\n        /* \"Lottery.sol\":3512:3520  winnings */\n      0x05\n        /* \"Lottery.sol\":3512:3528  winnings[winner] */\n      0x20\n      mstore\n      0x40\n      swap1\n      keccak256\n      sload\n        /* \"Lottery.sol\":3360:3568  function checkWinningsAmount() public view returns (uint256) {... */\n      jump(tag_33)\n        /* \"Lottery.sol\":363:404  uint256 public constant duration = 5 days */\n    tag_4:\n      callvalue\n      dup1\n      iszero\n      tag_41\n      jumpi\n      0x00\n      dup1\n      revert\n    tag_41:\n      pop\n      tag_33\n        /* \"Lottery.sol\":398:404  5 days */\n      0x069780\n        /* \"Lottery.sol\":363:404  uint256 public constant duration = 5 days */\n      dup2\n      jump\n        /* \"Lottery.sol\":145:191  uint256 public constant ticketPrice = 20 ether */\n    tag_5:\n      callvalue\n      dup1\n      iszero\n      tag_45\n      jumpi\n      0x00\n      dup1\n      revert\n    tag_45:\n      pop\n      tag_33\n        /* \"Lottery.sol\":183:191  20 ether */\n      0x01158e460913d00000\n        /* \"Lottery.sol\":145:191  uint256 public constant ticketPrice = 20 ether */\n      dup2\n      jump\n        /* \"Lottery.sol\":4150:4411  function WithdrawCommission() public isOperator {... */\n    tag_6:\n      callvalue\n      dup1\n      iszero\n      tag_49\n      jumpi\n      0x00\n      dup1\n      revert\n    tag_49:\n      pop\n      tag_50\n      tag_51\n      jump\t// in\n    tag_50:\n      stop\n        /* \"Lottery.sol\":447:472  uint256 public expiration */\n    tag_7:\n      callvalue\n      dup1\n      iszero\n      tag_52\n      jumpi\n      0x00\n      dup1\n      revert\n    tag_52:\n      pop\n      tag_33\n      sload(0x00)\n      dup2\n      jump\n        /* \"Lottery.sol\":2282:3146  function DrawWinnerTicket() public isOperator {... */\n    tag_8:\n      callvalue\n      dup1\n      iszero\n      tag_56\n      jumpi\n      0x00\n      dup1\n      revert\n    tag_56:\n      pop\n      tag_50\n      tag_58\n      jump\t// in\n        /* \"Lottery.sol\":1488:1580  function getTickets() public view returns (address[] memory) {... */\n    tag_9:\n      callvalue\n      dup1\n      iszero\n      tag_59\n      jumpi\n      0x00\n      dup1\n      revert\n    tag_59:\n      pop\n      tag_60\n      tag_61\n      jump\t// in\n    tag_60:\n      mload(0x40)\n      tag_35\n      swap2\n      swap1\n      tag_63\n      jump\t// in\n        /* \"Lottery.sol\":911:935  address[] public tickets */\n    tag_10:\n      callvalue\n      dup1\n      iszero\n      tag_64\n      jumpi\n      0x00\n      dup1\n      revert\n    tag_64:\n      pop\n      tag_65\n      tag_66\n      calldatasize\n      0x04\n      tag_67\n      jump\t// in\n    tag_66:\n      tag_68\n      jump\t// in\n    tag_65:\n      mload(0x40)\n      sub(shl(0xa0, 0x01), 0x01)\n        /* \"#utility.yul\":1231:1286   */\n      swap1\n      swap2\n      and\n        /* \"#utility.yul\":1213:1287   */\n      dup2\n      mstore\n        /* \"#utility.yul\":1201:1203   */\n      0x20\n        /* \"#utility.yul\":1186:1204   */\n      add\n        /* \"Lottery.sol\":911:935  address[] public tickets */\n      tag_35\n        /* \"#utility.yul\":1067:1293   */\n      jump\n        /* \"Lottery.sol\":535:565  address public lotteryOperator */\n    tag_11:\n      callvalue\n      dup1\n      iszero\n      tag_71\n      jumpi\n      0x00\n      dup1\n      revert\n    tag_71:\n      pop\n      sload(0x01)\n      tag_65\n      swap1\n      sub(shl(0xa0, 0x01), 0x01)\n      and\n      dup2\n      jump\n        /* \"Lottery.sol\":273:317  uint256 public constant ticketCommission = 3 */\n    tag_12:\n      callvalue\n      dup1\n      iszero\n      tag_75\n      jumpi\n      0x00\n      dup1\n      revert\n    tag_75:\n      pop\n      tag_33\n        /* \"Lottery.sol\":316:317  3 */\n      0x03\n        /* \"Lottery.sol\":273:317  uint256 public constant ticketCommission = 3 */\n      dup2\n      jump\n        /* \"Lottery.sol\":3574:3805  function WithdrawWinnings() public isWinner {... */\n    tag_13:\n      callvalue\n      dup1\n      iszero\n      tag_79\n      jumpi\n      0x00\n      dup1\n      revert\n    tag_79:\n      pop\n      tag_50\n      tag_81\n      jump\t// in\n        /* \"Lottery.sol\":1705:2276  function BuyTickets() public payable {... */\n    tag_14:\n      tag_50\n      tag_83\n      jump\t// in\n        /* \"Lottery.sol\":4638:4747  function RemainingTickets() public view returns (uint256) {... */\n    tag_15:\n      callvalue\n      dup1\n      iszero\n      tag_84\n      jumpi\n      0x00\n      dup1\n      revert\n    tag_84:\n      pop\n      tag_33\n      tag_86\n      jump\t// in\n        /* \"Lottery.sol\":4417:4512  function IsWinner() public view returns (bool) {... */\n    tag_16:\n      callvalue\n      dup1\n      iszero\n      tag_88\n      jumpi\n      0x00\n      dup1\n      revert\n    tag_88:\n      pop\n        /* \"Lottery.sol\":4490:4500  msg.sender */\n      caller\n        /* \"Lottery.sol\":4458:4462  bool */\n      0x00\n        /* \"Lottery.sol\":4481:4501  winnings[msg.sender] */\n      swap1\n      dup2\n      mstore\n        /* \"Lottery.sol\":4481:4489  winnings */\n      0x05\n        /* \"Lottery.sol\":4481:4501  winnings[msg.sender] */\n      0x20\n      mstore\n      0x40\n      swap1\n      keccak256\n      sload\n        /* \"Lottery.sol\":4481:4505  winnings[msg.sender] > 0 */\n      iszero\n      iszero\n        /* \"Lottery.sol\":4417:4512  function IsWinner() public view returns (bool) {... */\n      mload(0x40)\n        /* \"#utility.yul\":1463:1477   */\n      swap1\n      iszero\n        /* \"#utility.yul\":1456:1478   */\n      iszero\n        /* \"#utility.yul\":1438:1479   */\n      dup2\n      mstore\n        /* \"#utility.yul\":1426:1428   */\n      0x20\n        /* \"#utility.yul\":1411:1429   */\n      add\n        /* \"Lottery.sol\":4417:4512  function IsWinner() public view returns (bool) {... */\n      tag_35\n        /* \"#utility.yul\":1298:1485   */\n      jump\n        /* \"Lottery.sol\":197:236  uint256 public constant maxTickets = 25 */\n    tag_17:\n      callvalue\n      dup1\n      iszero\n      tag_93\n      jumpi\n      0x00\n      dup1\n      revert\n    tag_93:\n      pop\n      tag_33\n        /* \"Lottery.sol\":234:236  25 */\n      0x19\n        /* \"Lottery.sol\":197:236  uint256 public constant maxTickets = 25 */\n      dup2\n      jump\n        /* \"Lottery.sol\":3811:4144  function RefundAll() public {... */\n    tag_18:\n      callvalue\n      dup1\n      iszero\n      tag_97\n      jumpi\n      0x00\n      dup1\n      revert\n    tag_97:\n      pop\n      tag_50\n      tag_99\n      jump\t// in\n        /* \"Lottery.sol\":600:642  uint256 public operatorTotalCommission = 0 */\n    tag_19:\n      callvalue\n      dup1\n      iszero\n      tag_100\n      jumpi\n      0x00\n      dup1\n      revert\n    tag_100:\n      pop\n      tag_33\n      sload(0x02)\n      dup2\n      jump\n        /* \"Lottery.sol\":4518:4632  function CurrentWinningReward() public view returns (uint256) {... */\n    tag_20:\n      callvalue\n      dup1\n      iszero\n      tag_104\n      jumpi\n      0x00\n      dup1\n      revert\n    tag_104:\n      pop\n      tag_33\n      tag_106\n      jump\t// in\n        /* \"Lottery.sol\":1586:1699  function getWinningsForAddress(address addr) public view returns (uint256) {... */\n    tag_21:\n      callvalue\n      dup1\n      iszero\n      tag_108\n      jumpi\n      0x00\n      dup1\n      revert\n    tag_108:\n      pop\n      tag_33\n      tag_110\n      calldatasize\n      0x04\n      tag_111\n      jump\t// in\n    tag_110:\n      sub(shl(0xa0, 0x01), 0x01)\n        /* \"Lottery.sol\":1678:1692  winnings[addr] */\n      and\n        /* \"Lottery.sol\":1652:1659  uint256 */\n      0x00\n        /* \"Lottery.sol\":1678:1692  winnings[addr] */\n      swap1\n      dup2\n      mstore\n        /* \"Lottery.sol\":1678:1686  winnings */\n      0x05\n        /* \"Lottery.sol\":1678:1692  winnings[addr] */\n      0x20\n      mstore\n      0x40\n      swap1\n      keccak256\n      sload\n      swap1\n        /* \"Lottery.sol\":1586:1699  function getWinningsForAddress(address addr) public view returns (uint256) {... */\n      jump\n        /* \"Lottery.sol\":824:867  mapping(address => uint256) public winnings */\n    tag_22:\n      callvalue\n      dup1\n      iszero\n      tag_114\n      jumpi\n      0x00\n      dup1\n      revert\n    tag_114:\n      pop\n      tag_33\n      tag_116\n      calldatasize\n      0x04\n      tag_111\n      jump\t// in\n    tag_116:\n      mstore(0x20, 0x05)\n      0x00\n      swap1\n      dup2\n      mstore\n      0x40\n      swap1\n      keccak256\n      sload\n      dup2\n      jump\n        /* \"Lottery.sol\":3152:3354  function restartDraw() public isOperator {... */\n    tag_23:\n      callvalue\n      dup1\n      iszero\n      tag_119\n      jumpi\n      0x00\n      dup1\n      revert\n    tag_119:\n      pop\n      tag_50\n      tag_121\n      jump\t// in\n        /* \"Lottery.sol\":680:705  address public lastWinner */\n    tag_24:\n      callvalue\n      dup1\n      iszero\n      tag_122\n      jumpi\n      0x00\n      dup1\n      revert\n    tag_122:\n      pop\n      sload(0x03)\n      tag_65\n      swap1\n      sub(shl(0xa0, 0x01), 0x01)\n      and\n      dup2\n      jump\n        /* \"Lottery.sol\":4150:4411  function WithdrawCommission() public isOperator {... */\n    tag_51:\n        /* \"Lottery.sol\":1098:1113  lotteryOperator */\n      and(sub(shl(0xa0, 0x01), 0x01), sload(0x01))\n        /* \"Lottery.sol\":1084:1094  msg.sender */\n      caller\n        /* \"Lottery.sol\":1084:1113  msg.sender == lotteryOperator */\n      eq\n        /* \"Lottery.sol\":1062:1174  require(... */\n      tag_128\n      jumpi\n      mload(0x40)\n      shl(0xe5, 0x461bcd)\n      dup2\n      mstore\n        /* \"#utility.yul\":2006:2008   */\n      0x20\n        /* \"Lottery.sol\":1062:1174  require(... */\n      0x04\n      dup3\n      add\n        /* \"#utility.yul\":1988:2009   */\n      mstore\n        /* \"#utility.yul\":2045:2047   */\n      0x22\n        /* \"#utility.yul\":2025:2043   */\n      0x24\n      dup3\n      add\n        /* \"#utility.yul\":2018:2048   */\n      mstore\n        /* \"#utility.yul\":2084:2118   */\n      0x43616c6c6572206973206e6f7420746865206c6f7474657279206f7065726174\n        /* \"#utility.yul\":2064:2082   */\n      0x44\n      dup3\n      add\n        /* \"#utility.yul\":2057:2119   */\n      mstore\n      shl(0xf1, 0x37b9)\n        /* \"#utility.yul\":2135:2153   */\n      0x64\n      dup3\n      add\n        /* \"#utility.yul\":2128:2160   */\n      mstore\n        /* \"#utility.yul\":2177:2196   */\n      0x84\n      add\n        /* \"Lottery.sol\":1062:1174  require(... */\n    tag_129:\n      mload(0x40)\n      dup1\n      swap2\n      sub\n      swap1\n      revert\n    tag_128:\n        /* \"Lottery.sol\":4295:4318  operatorTotalCommission */\n      0x02\n      dup1\n      sload\n        /* \"Lottery.sol\":4208:4232  address payable operator */\n      0x00\n        /* \"Lottery.sol\":4328:4355  operatorTotalCommission = 0 */\n      swap2\n      dup3\n      swap1\n      sstore\n        /* \"Lottery.sol\":4366:4404  operator.transfer(commission2Transfer) */\n      mload(0x40)\n        /* \"Lottery.sol\":4243:4253  msg.sender */\n      caller\n      swap3\n      dup4\n      swap2\n        /* \"Lottery.sol\":4366:4404  operator.transfer(commission2Transfer) */\n      dup4\n      iszero\n      0x08fc\n      mul\n      swap2\n        /* \"Lottery.sol\":4295:4318  operatorTotalCommission */\n      dup5\n      swap2\n        /* \"Lottery.sol\":4366:4404  operator.transfer(commission2Transfer) */\n      swap1\n      dup2\n        /* \"Lottery.sol\":4208:4232  address payable operator */\n      dup2\n        /* \"Lottery.sol\":4366:4404  operator.transfer(commission2Transfer) */\n      dup2\n        /* \"Lottery.sol\":4295:4318  operatorTotalCommission */\n      dup6\n        /* \"Lottery.sol\":4243:4253  msg.sender */\n      dup9\n        /* \"Lottery.sol\":4366:4404  operator.transfer(commission2Transfer) */\n      dup9\n      call\n      swap4\n      pop\n      pop\n      pop\n      pop\n      iszero\n      dup1\n      iszero\n      tag_133\n      jumpi\n      returndatasize\n      0x00\n      dup1\n      returndatacopy\n      revert(0x00, returndatasize)\n    tag_133:\n      pop\n        /* \"Lottery.sol\":4198:4411  {... */\n      pop\n      pop\n        /* \"Lottery.sol\":4150:4411  function WithdrawCommission() public isOperator {... */\n      jump\t// out\n        /* \"Lottery.sol\":2282:3146  function DrawWinnerTicket() public isOperator {... */\n    tag_58:\n        /* \"Lottery.sol\":1098:1113  lotteryOperator */\n      and(sub(shl(0xa0, 0x01), 0x01), sload(0x01))\n        /* \"Lottery.sol\":1084:1094  msg.sender */\n      caller\n        /* \"Lottery.sol\":1084:1113  msg.sender == lotteryOperator */\n      eq\n        /* \"Lottery.sol\":1062:1174  require(... */\n      tag_135\n      jumpi\n      mload(0x40)\n      shl(0xe5, 0x461bcd)\n      dup2\n      mstore\n        /* \"#utility.yul\":2006:2008   */\n      0x20\n        /* \"Lottery.sol\":1062:1174  require(... */\n      0x04\n      dup3\n      add\n        /* \"#utility.yul\":1988:2009   */\n      mstore\n        /* \"#utility.yul\":2045:2047   */\n      0x22\n        /* \"#utility.yul\":2025:2043   */\n      0x24\n      dup3\n      add\n        /* \"#utility.yul\":2018:2048   */\n      mstore\n        /* \"#utility.yul\":2084:2118   */\n      0x43616c6c6572206973206e6f7420746865206c6f7474657279206f7065726174\n        /* \"#utility.yul\":2064:2082   */\n      0x44\n      dup3\n      add\n        /* \"#utility.yul\":2057:2119   */\n      mstore\n      shl(0xf1, 0x37b9)\n        /* \"#utility.yul\":2135:2153   */\n      0x64\n      dup3\n      add\n        /* \"#utility.yul\":2128:2160   */\n      mstore\n        /* \"#utility.yul\":2177:2196   */\n      0x84\n      add\n        /* \"Lottery.sol\":1062:1174  require(... */\n      tag_129\n        /* \"#utility.yul\":1804:2202   */\n      jump\n        /* \"Lottery.sol\":1062:1174  require(... */\n    tag_135:\n        /* \"Lottery.sol\":2346:2353  tickets */\n      0x06\n        /* \"Lottery.sol\":2346:2360  tickets.length */\n      sload\n        /* \"Lottery.sol\":2363:2364  2 */\n      0x02\n      lt\n        /* \"Lottery.sol\":2338:2403  require(tickets.length > 2, \"less than 2 tickets were purchased\") */\n      tag_138\n      jumpi\n      mload(0x40)\n      shl(0xe5, 0x461bcd)\n      dup2\n      mstore\n        /* \"#utility.yul\":2409:2411   */\n      0x20\n        /* \"Lottery.sol\":2338:2403  require(tickets.length > 2, \"less than 2 tickets were purchased\") */\n      0x04\n      dup3\n      add\n        /* \"#utility.yul\":2391:2412   */\n      mstore\n        /* \"#utility.yul\":2448:2450   */\n      0x22\n        /* \"#utility.yul\":2428:2446   */\n      0x24\n      dup3\n      add\n        /* \"#utility.yul\":2421:2451   */\n      mstore\n        /* \"#utility.yul\":2487:2521   */\n      0x6c657373207468616e2032207469636b65747320776572652070757263686173\n        /* \"#utility.yul\":2467:2485   */\n      0x44\n      dup3\n      add\n        /* \"#utility.yul\":2460:2522   */\n      mstore\n      shl(0xf2, 0x1959)\n        /* \"#utility.yul\":2538:2556   */\n      0x64\n      dup3\n      add\n        /* \"#utility.yul\":2531:2563   */\n      mstore\n        /* \"#utility.yul\":2580:2599   */\n      0x84\n      add\n        /* \"Lottery.sol\":2338:2403  require(tickets.length > 2, \"less than 2 tickets were purchased\") */\n      tag_129\n        /* \"#utility.yul\":2207:2605   */\n      jump\n        /* \"Lottery.sol\":2338:2403  require(tickets.length > 2, \"less than 2 tickets were purchased\") */\n    tag_138:\n        /* \"Lottery.sol\":2459:2466  tickets */\n      0x06\n        /* \"Lottery.sol\":2459:2473  tickets.length */\n      sload\n        /* \"Lottery.sol\":2414:2431  bytes32 blockHash */\n      0x00\n      swap1\n        /* \"Lottery.sol\":2444:2473  block.number - tickets.length */\n      tag_141\n      swap1\n        /* \"Lottery.sol\":2444:2456  block.number */\n      number\n        /* \"Lottery.sol\":2444:2473  block.number - tickets.length */\n      tag_142\n      jump\t// in\n    tag_141:\n        /* \"Lottery.sol\":2538:2582  abi.encodePacked(block.timestamp, blockHash) */\n      0x40\n      dup1\n      mload\n        /* \"Lottery.sol\":2555:2570  block.timestamp */\n      timestamp\n        /* \"Lottery.sol\":2538:2582  abi.encodePacked(block.timestamp, blockHash) */\n      0x20\n      dup3\n      add\n        /* \"#utility.yul\":3032:3051   */\n      mstore\n        /* \"Lottery.sol\":2434:2474  blockhash(block.number - tickets.length) */\n      swap2\n      blockhash\n        /* \"#utility.yul\":3067:3079   */\n      swap1\n      dup3\n      add\n        /* \"#utility.yul\":3060:3088   */\n      dup2\n      swap1\n      mstore\n        /* \"Lottery.sol\":2434:2474  blockhash(block.number - tickets.length) */\n      swap2\n      pop\n        /* \"Lottery.sol\":2484:2504  uint256 randomNumber */\n      0x00\n      swap1\n        /* \"#utility.yul\":3104:3116   */\n      0x60\n      add\n        /* \"Lottery.sol\":2538:2582  abi.encodePacked(block.timestamp, blockHash) */\n      0x40\n      dup1\n      mload\n      not(0x1f)\n      dup2\n      dup5\n      sub\n      add\n      dup2\n      mstore\n      swap2\n      swap1\n      mstore\n        /* \"Lottery.sol\":2528:2583  keccak256(abi.encodePacked(block.timestamp, blockHash)) */\n      dup1\n      mload\n        /* \"Lottery.sol\":2538:2582  abi.encodePacked(block.timestamp, blockHash) */\n      0x20\n        /* \"Lottery.sol\":2528:2583  keccak256(abi.encodePacked(block.timestamp, blockHash)) */\n      swap1\n      swap2\n      add\n      keccak256\n        /* \"Lottery.sol\":2642:2649  tickets */\n      0x06\n        /* \"Lottery.sol\":2642:2656  tickets.length */\n      sload\n        /* \"Lottery.sol\":2528:2583  keccak256(abi.encodePacked(block.timestamp, blockHash)) */\n      swap1\n      swap2\n      pop\n        /* \"Lottery.sol\":2507:2593  uint256(... */\n      0x00\n      swap1\n        /* \"Lottery.sol\":2627:2656  randomNumber % tickets.length */\n      tag_145\n      swap1\n        /* \"Lottery.sol\":2528:2583  keccak256(abi.encodePacked(block.timestamp, blockHash)) */\n      dup4\n        /* \"Lottery.sol\":2627:2656  randomNumber % tickets.length */\n      tag_146\n      jump\t// in\n    tag_145:\n        /* \"Lottery.sol\":2603:2656  uint256 winningTicket = randomNumber % tickets.length */\n      swap1\n      pop\n        /* \"Lottery.sol\":2667:2681  address winner */\n      0x00\n        /* \"Lottery.sol\":2684:2691  tickets */\n      0x06\n        /* \"Lottery.sol\":2692:2705  winningTicket */\n      dup3\n        /* \"Lottery.sol\":2684:2706  tickets[winningTicket] */\n      dup2\n      sload\n      dup2\n      lt\n      tag_148\n      jumpi\n      tag_148\n      tag_149\n      jump\t// in\n    tag_148:\n      0x00\n      swap2\n      dup3\n      mstore\n      0x20\n      dup3\n      keccak256\n      add\n      sload\n        /* \"Lottery.sol\":2716:2726  lastWinner */\n      0x03\n        /* \"Lottery.sol\":2716:2735  lastWinner = winner */\n      dup1\n      sload\n      not(0xffffffffffffffffffffffffffffffffffffffff)\n      and\n      sub(shl(0xa0, 0x01), 0x01)\n        /* \"Lottery.sol\":2684:2706  tickets[winningTicket] */\n      swap1\n      swap3\n      and\n        /* \"Lottery.sol\":2716:2735  lastWinner = winner */\n      swap2\n      dup3\n      or\n      swap1\n      sstore\n        /* \"Lottery.sol\":2772:2779  tickets */\n      0x06\n        /* \"Lottery.sol\":2772:2786  tickets.length */\n      sload\n        /* \"Lottery.sol\":2684:2706  tickets[winningTicket] */\n      swap1\n      swap3\n      pop\n        /* \"Lottery.sol\":2772:2800  tickets.length * ticketPrice */\n      tag_151\n      swap1\n        /* \"Lottery.sol\":183:191  20 ether */\n      0x01158e460913d00000\n      swap1\n        /* \"Lottery.sol\":2772:2800  tickets.length * ticketPrice */\n      tag_152\n      jump\t// in\n    tag_151:\n        /* \"Lottery.sol\":2745:2800  uint256 totalTicketPrice = tickets.length * ticketPrice */\n      swap1\n      pop\n        /* \"Lottery.sol\":2810:2836  uint256 operatorPercentage */\n      0x00\n        /* \"Lottery.sol\":2880:2883  100 */\n      0x64\n        /* \"Lottery.sol\":2841:2876  totalTicketPrice * ticketCommission */\n      tag_153\n        /* \"Lottery.sol\":316:317  3 */\n      0x03\n        /* \"Lottery.sol\":2745:2800  uint256 totalTicketPrice = tickets.length * ticketPrice */\n      dup5\n        /* \"Lottery.sol\":2841:2876  totalTicketPrice * ticketCommission */\n      tag_152\n      jump\t// in\n    tag_153:\n        /* \"Lottery.sol\":2840:2883  (totalTicketPrice * ticketCommission) / 100 */\n      tag_154\n      swap2\n      swap1\n      tag_155\n      jump\t// in\n    tag_154:\n        /* \"Lottery.sol\":2810:2883  uint256 operatorPercentage =  (totalTicketPrice * ticketCommission) / 100 */\n      swap1\n      pop\n        /* \"Lottery.sol\":2932:2964  ticketPrice - operatorPercentage */\n      tag_156\n        /* \"Lottery.sol\":2810:2883  uint256 operatorPercentage =  (totalTicketPrice * ticketCommission) / 100 */\n      dup2\n        /* \"Lottery.sol\":183:191  20 ether */\n      0x01158e460913d00000\n        /* \"Lottery.sol\":2932:2964  ticketPrice - operatorPercentage */\n      tag_142\n      jump\t// in\n    tag_156:\n        /* \"Lottery.sol\":2914:2921  tickets */\n      0x06\n        /* \"Lottery.sol\":2914:2928  tickets.length */\n      sload\n        /* \"Lottery.sol\":2914:2965  tickets.length * (ticketPrice - operatorPercentage) */\n      tag_157\n      swap2\n      swap1\n      tag_152\n      jump\t// in\n    tag_157:\n      sub(shl(0xa0, 0x01), 0x01)\n        /* \"Lottery.sol\":2893:2909  winnings[winner] */\n      dup5\n      and\n      0x00\n      swap1\n      dup2\n      mstore\n        /* \"Lottery.sol\":2893:2901  winnings */\n      0x05\n        /* \"Lottery.sol\":2893:2909  winnings[winner] */\n      0x20\n      mstore\n      0x40\n      dup2\n      keccak256\n        /* \"Lottery.sol\":2893:2966  winnings[winner] += (tickets.length * (ticketPrice - operatorPercentage)) */\n      dup1\n      sload\n        /* \"Lottery.sol\":2893:2909  winnings[winner] */\n      swap1\n      swap2\n      swap1\n        /* \"Lottery.sol\":2893:2966  winnings[winner] += (tickets.length * (ticketPrice - operatorPercentage)) */\n      tag_158\n      swap1\n      dup5\n      swap1\n      tag_159\n      jump\t// in\n    tag_158:\n      swap1\n      swap2\n      sstore\n      pop\n      pop\n      sub(shl(0xa0, 0x01), 0x01)\n        /* \"Lottery.sol\":2995:3011  winnings[winner] */\n      dup4\n      and\n      0x00\n      swap1\n      dup2\n      mstore\n        /* \"Lottery.sol\":2995:3003  winnings */\n      0x05\n        /* \"Lottery.sol\":2995:3011  winnings[winner] */\n      0x20\n      mstore\n      0x40\n      dup2\n      keccak256\n      sload\n        /* \"Lottery.sol\":2976:2992  lastWinnerAmount */\n      0x04\n        /* \"Lottery.sol\":2976:3011  lastWinnerAmount = winnings[winner] */\n      sstore\n        /* \"Lottery.sol\":3021:3044  operatorTotalCommission */\n      0x02\n        /* \"Lottery.sol\":3021:3066  operatorTotalCommission += operatorPercentage */\n      dup1\n      sload\n        /* \"Lottery.sol\":3048:3066  operatorPercentage */\n      dup4\n      swap3\n        /* \"Lottery.sol\":2995:3011  winnings[winner] */\n      swap1\n        /* \"Lottery.sol\":3021:3066  operatorTotalCommission += operatorPercentage */\n      tag_160\n      swap1\n        /* \"Lottery.sol\":3048:3066  operatorPercentage */\n      dup5\n      swap1\n        /* \"Lottery.sol\":3021:3066  operatorTotalCommission += operatorPercentage */\n      tag_159\n      jump\t// in\n    tag_160:\n      swap1\n      swap2\n      sstore\n      pop\n        /* \"Lottery.sol\":3076:3090  delete tickets */\n      tag_161\n      swap1\n      pop\n        /* \"Lottery.sol\":3083:3090  tickets */\n      0x06\n      0x00\n        /* \"Lottery.sol\":3076:3090  delete tickets */\n      tag_162\n      jump\t// in\n    tag_161:\n        /* \"Lottery.sol\":3113:3139  block.timestamp + duration */\n      tag_163\n        /* \"Lottery.sol\":398:404  5 days */\n      0x069780\n        /* \"Lottery.sol\":3113:3128  block.timestamp */\n      timestamp\n        /* \"Lottery.sol\":3113:3139  block.timestamp + duration */\n      tag_159\n      jump\t// in\n    tag_163:\n        /* \"Lottery.sol\":3100:3110  expiration */\n      0x00\n        /* \"Lottery.sol\":3100:3139  expiration = block.timestamp + duration */\n      sstore\n      pop\n      pop\n      pop\n      pop\n      pop\n      pop\n        /* \"Lottery.sol\":2282:3146  function DrawWinnerTicket() public isOperator {... */\n      jump\t// out\n        /* \"Lottery.sol\":1488:1580  function getTickets() public view returns (address[] memory) {... */\n    tag_61:\n        /* \"Lottery.sol\":1531:1547  address[] memory */\n      0x60\n        /* \"Lottery.sol\":1566:1573  tickets */\n      0x06\n        /* \"Lottery.sol\":1559:1573  return tickets */\n      dup1\n      sload\n      dup1\n      0x20\n      mul\n      0x20\n      add\n      mload(0x40)\n      swap1\n      dup2\n      add\n      0x40\n      mstore\n      dup1\n      swap3\n      swap2\n      swap1\n      dup2\n      dup2\n      mstore\n      0x20\n      add\n      dup3\n      dup1\n      sload\n      dup1\n      iszero\n      tag_165\n      jumpi\n      0x20\n      mul\n      dup3\n      add\n      swap2\n      swap1\n      0x00\n      mstore\n      keccak256(0x00, 0x20)\n      swap1\n    tag_166:\n      dup2\n      sload\n      sub(shl(0xa0, 0x01), 0x01)\n      and\n      dup2\n      mstore\n      0x01\n      swap1\n      swap2\n      add\n      swap1\n      0x20\n      add\n      dup1\n      dup4\n      gt\n      tag_166\n      jumpi\n    tag_165:\n      pop\n      pop\n      pop\n      pop\n      pop\n      swap1\n      pop\n        /* \"Lottery.sol\":1488:1580  function getTickets() public view returns (address[] memory) {... */\n      swap1\n      jump\t// out\n        /* \"Lottery.sol\":911:935  address[] public tickets */\n    tag_68:\n      0x06\n      dup2\n      dup2\n      sload\n      dup2\n      lt\n      tag_167\n      jumpi\n      0x00\n      dup1\n      revert\n    tag_167:\n      0x00\n      swap2\n      dup3\n      mstore\n      0x20\n      swap1\n      swap2\n      keccak256\n      add\n      sload\n      sub(shl(0xa0, 0x01), 0x01)\n      and\n      swap1\n      pop\n      dup2\n      jump\t// out\n        /* \"Lottery.sol\":3574:3805  function WithdrawWinnings() public isWinner {... */\n    tag_81:\n        /* \"Lottery.sol\":4490:4500  msg.sender */\n      caller\n        /* \"Lottery.sol\":4458:4462  bool */\n      0x00\n        /* \"Lottery.sol\":4481:4501  winnings[msg.sender] */\n      swap1\n      dup2\n      mstore\n        /* \"Lottery.sol\":4481:4489  winnings */\n      0x05\n        /* \"Lottery.sol\":4481:4501  winnings[msg.sender] */\n      0x20\n      mstore\n      0x40\n      swap1\n      keccak256\n      sload\n        /* \"Lottery.sol\":1275:1320  require(IsWinner(), \"Caller is not a winner\") */\n      tag_171\n      jumpi\n      mload(0x40)\n      shl(0xe5, 0x461bcd)\n      dup2\n      mstore\n        /* \"#utility.yul\":4138:4140   */\n      0x20\n        /* \"Lottery.sol\":1275:1320  require(IsWinner(), \"Caller is not a winner\") */\n      0x04\n      dup3\n      add\n        /* \"#utility.yul\":4120:4141   */\n      mstore\n        /* \"#utility.yul\":4177:4179   */\n      0x16\n        /* \"#utility.yul\":4157:4175   */\n      0x24\n      dup3\n      add\n        /* \"#utility.yul\":4150:4180   */\n      mstore\n        /* \"#utility.yul\":4216:4240   */\n      0x43616c6c6572206973206e6f7420612077696e6e657200000000000000000000\n        /* \"#utility.yul\":4196:4214   */\n      0x44\n      dup3\n      add\n        /* \"#utility.yul\":4189:4241   */\n      mstore\n        /* \"#utility.yul\":4258:4276   */\n      0x64\n      add\n        /* \"Lottery.sol\":1275:1320  require(IsWinner(), \"Caller is not a winner\") */\n      tag_129\n        /* \"#utility.yul\":3936:4282   */\n      jump\n        /* \"Lottery.sol\":1275:1320  require(IsWinner(), \"Caller is not a winner\") */\n    tag_171:\n        /* \"Lottery.sol\":3661:3671  msg.sender */\n      caller\n        /* \"Lottery.sol\":3628:3650  address payable winner */\n      0x00\n        /* \"Lottery.sol\":3709:3725  winnings[winner] */\n      dup2\n      dup2\n      mstore\n        /* \"Lottery.sol\":3709:3717  winnings */\n      0x05\n        /* \"Lottery.sol\":3709:3725  winnings[winner] */\n      0x20\n      mstore\n      0x40\n      dup1\n      dup3\n      keccak256\n      dup1\n      sload\n        /* \"Lottery.sol\":3735:3755  winnings[winner] = 0 */\n      swap1\n      dup4\n      swap1\n      sstore\n        /* \"Lottery.sol\":3766:3798  winner.transfer(reward2Transfer) */\n      swap1\n      mload\n        /* \"Lottery.sol\":3709:3725  winnings[winner] */\n      swap1\n      swap2\n        /* \"Lottery.sol\":3661:3671  msg.sender */\n      dup4\n      swap2\n        /* \"Lottery.sol\":3766:3798  winner.transfer(reward2Transfer) */\n      dup4\n      iszero\n      0x08fc\n      mul\n      swap2\n        /* \"Lottery.sol\":3709:3725  winnings[winner] */\n      dup5\n      swap2\n        /* \"Lottery.sol\":3766:3798  winner.transfer(reward2Transfer) */\n      swap1\n      dup2\n        /* \"Lottery.sol\":3628:3650  address payable winner */\n      dup2\n        /* \"Lottery.sol\":3766:3798  winner.transfer(reward2Transfer) */\n      dup2\n        /* \"Lottery.sol\":3709:3725  winnings[winner] */\n      dup6\n        /* \"Lottery.sol\":3661:3671  msg.sender */\n      dup9\n        /* \"Lottery.sol\":3766:3798  winner.transfer(reward2Transfer) */\n      dup9\n      call\n      swap4\n      pop\n      pop\n      pop\n      pop\n      iszero\n      dup1\n      iszero\n      tag_133\n      jumpi\n      returndatasize\n      0x00\n      dup1\n      returndatacopy\n      revert(0x00, returndatasize)\n        /* \"Lottery.sol\":1705:2276  function BuyTickets() public payable {... */\n    tag_83:\n        /* \"Lottery.sol\":1773:1796  msg.value % ticketPrice */\n      tag_178\n        /* \"Lottery.sol\":183:191  20 ether */\n      0x01158e460913d00000\n        /* \"Lottery.sol\":1773:1782  msg.value */\n      callvalue\n        /* \"Lottery.sol\":1773:1796  msg.value % ticketPrice */\n      tag_146\n      jump\t// in\n    tag_178:\n        /* \"Lottery.sol\":1773:1801  msg.value % ticketPrice == 0 */\n      iszero\n        /* \"Lottery.sol\":1896:1925  Strings.toString(ticketPrice) */\n      tag_179\n        /* \"Lottery.sol\":183:191  20 ether */\n      0x01158e460913d00000\n        /* \"Lottery.sol\":1896:1912  Strings.toString */\n      tag_180\n        /* \"Lottery.sol\":1896:1925  Strings.toString(ticketPrice) */\n      jump\t// in\n    tag_179:\n        /* \"Lottery.sol\":1815:1965  string.concat(... */\n      add(0x20, mload(0x40))\n      tag_181\n      swap2\n      swap1\n      tag_182\n      jump\t// in\n    tag_181:\n      mload(0x40)\n      0x20\n      dup2\n      dup4\n      sub\n      sub\n      dup2\n      mstore\n      swap1\n      0x40\n      mstore\n        /* \"Lottery.sol\":1752:1975  require(... */\n      swap1\n      tag_183\n      jumpi\n      mload(0x40)\n      shl(0xe5, 0x461bcd)\n      dup2\n      mstore\n      0x04\n      add\n      tag_129\n      swap2\n      swap1\n      tag_185\n      jump\t// in\n    tag_183:\n      pop\n        /* \"Lottery.sol\":1985:2010  uint256 numOfTicketsToBuy */\n      0x00\n        /* \"Lottery.sol\":2013:2036  msg.value / ticketPrice */\n      tag_186\n        /* \"Lottery.sol\":183:191  20 ether */\n      0x01158e460913d00000\n        /* \"Lottery.sol\":2013:2022  msg.value */\n      callvalue\n        /* \"Lottery.sol\":2013:2036  msg.value / ticketPrice */\n      tag_155\n      jump\t// in\n    tag_186:\n        /* \"Lottery.sol\":1985:2036  uint256 numOfTicketsToBuy = msg.value / ticketPrice */\n      swap1\n      pop\n        /* \"Lottery.sol\":2089:2107  RemainingTickets() */\n      tag_187\n        /* \"Lottery.sol\":2089:2105  RemainingTickets */\n      tag_86\n        /* \"Lottery.sol\":2089:2107  RemainingTickets() */\n      jump\t// in\n    tag_187:\n        /* \"Lottery.sol\":2068:2085  numOfTicketsToBuy */\n      dup2\n        /* \"Lottery.sol\":2068:2107  numOfTicketsToBuy <= RemainingTickets() */\n      gt\n      iszero\n        /* \"Lottery.sol\":2047:2162  require(... */\n      tag_188\n      jumpi\n      mload(0x40)\n      shl(0xe5, 0x461bcd)\n      dup2\n      mstore\n        /* \"#utility.yul\":5751:5753   */\n      0x20\n        /* \"Lottery.sol\":2047:2162  require(... */\n      0x04\n      dup3\n      add\n        /* \"#utility.yul\":5733:5754   */\n      mstore\n        /* \"#utility.yul\":5790:5792   */\n      0x1d\n        /* \"#utility.yul\":5770:5788   */\n      0x24\n      dup3\n      add\n        /* \"#utility.yul\":5763:5793   */\n      mstore\n        /* \"#utility.yul\":5829:5860   */\n      0x4e6f7420656e6f756768207469636b65747320617661696c61626c652e000000\n        /* \"#utility.yul\":5809:5827   */\n      0x44\n      dup3\n      add\n        /* \"#utility.yul\":5802:5861   */\n      mstore\n        /* \"#utility.yul\":5878:5896   */\n      0x64\n      add\n        /* \"Lottery.sol\":2047:2162  require(... */\n      tag_129\n        /* \"#utility.yul\":5549:5902   */\n      jump\n        /* \"Lottery.sol\":2047:2162  require(... */\n    tag_188:\n        /* \"Lottery.sol\":2178:2187  uint256 i */\n      0x00\n        /* \"Lottery.sol\":2173:2270  for (uint256 i = 0; i < numOfTicketsToBuy; i++) {... */\n    tag_191:\n        /* \"Lottery.sol\":2197:2214  numOfTicketsToBuy */\n      dup2\n        /* \"Lottery.sol\":2193:2194  i */\n      dup2\n        /* \"Lottery.sol\":2193:2214  i < numOfTicketsToBuy */\n      lt\n        /* \"Lottery.sol\":2173:2270  for (uint256 i = 0; i < numOfTicketsToBuy; i++) {... */\n      iszero\n      tag_192\n      jumpi\n        /* \"Lottery.sol\":2235:2242  tickets */\n      0x06\n        /* \"Lottery.sol\":2235:2259  tickets.push(msg.sender) */\n      dup1\n      sload\n      0x01\n      dup2\n      add\n      dup3\n      sstore\n      0x00\n      swap2\n      swap1\n      swap2\n      mstore\n      0xf652222313e28459528d920b65115c16c04f3efc82aaedc97be59f3f377c0d3f\n      add\n      dup1\n      sload\n      not(0xffffffffffffffffffffffffffffffffffffffff)\n      and\n        /* \"Lottery.sol\":2248:2258  msg.sender */\n      caller\n        /* \"Lottery.sol\":2235:2259  tickets.push(msg.sender) */\n      or\n      swap1\n      sstore\n        /* \"Lottery.sol\":2216:2219  i++ */\n      dup1\n      tag_195\n      dup2\n      tag_196\n      jump\t// in\n    tag_195:\n      swap2\n      pop\n      pop\n        /* \"Lottery.sol\":2173:2270  for (uint256 i = 0; i < numOfTicketsToBuy; i++) {... */\n      jump(tag_191)\n    tag_192:\n      pop\n        /* \"Lottery.sol\":1742:2276  {... */\n      pop\n        /* \"Lottery.sol\":1705:2276  function BuyTickets() public payable {... */\n      jump\t// out\n        /* \"Lottery.sol\":4638:4747  function RemainingTickets() public view returns (uint256) {... */\n    tag_86:\n        /* \"Lottery.sol\":4726:4733  tickets */\n      0x06\n        /* \"Lottery.sol\":4726:4740  tickets.length */\n      sload\n        /* \"Lottery.sol\":4687:4694  uint256 */\n      0x00\n      swap1\n        /* \"Lottery.sol\":4713:4740  maxTickets - tickets.length */\n      tag_198\n      swap1\n        /* \"Lottery.sol\":234:236  25 */\n      0x19\n        /* \"Lottery.sol\":4713:4740  maxTickets - tickets.length */\n      tag_142\n      jump\t// in\n    tag_198:\n        /* \"Lottery.sol\":4706:4740  return maxTickets - tickets.length */\n      swap1\n      pop\n        /* \"Lottery.sol\":4638:4747  function RemainingTickets() public view returns (uint256) {... */\n      swap1\n      jump\t// out\n        /* \"Lottery.sol\":3811:4144  function RefundAll() public {... */\n    tag_99:\n        /* \"Lottery.sol\":3876:3886  expiration */\n      sload(0x00)\n        /* \"Lottery.sol\":3857:3872  block.timestamp */\n      timestamp\n        /* \"Lottery.sol\":3857:3886  block.timestamp >= expiration */\n      lt\n      iszero\n        /* \"Lottery.sol\":3849:3918  require(block.timestamp >= expiration, \"the lottery not expired yet\") */\n      tag_201\n      jumpi\n      mload(0x40)\n      shl(0xe5, 0x461bcd)\n      dup2\n      mstore\n        /* \"#utility.yul\":6249:6251   */\n      0x20\n        /* \"Lottery.sol\":3849:3918  require(block.timestamp >= expiration, \"the lottery not expired yet\") */\n      0x04\n      dup3\n      add\n        /* \"#utility.yul\":6231:6252   */\n      mstore\n        /* \"#utility.yul\":6288:6290   */\n      0x1b\n        /* \"#utility.yul\":6268:6286   */\n      0x24\n      dup3\n      add\n        /* \"#utility.yul\":6261:6291   */\n      mstore\n        /* \"#utility.yul\":6327:6356   */\n      0x746865206c6f7474657279206e6f742065787069726564207965740000000000\n        /* \"#utility.yul\":6307:6325   */\n      0x44\n      dup3\n      add\n        /* \"#utility.yul\":6300:6357   */\n      mstore\n        /* \"#utility.yul\":6374:6392   */\n      0x64\n      add\n        /* \"Lottery.sol\":3849:3918  require(block.timestamp >= expiration, \"the lottery not expired yet\") */\n      tag_129\n        /* \"#utility.yul\":6047:6398   */\n      jump\n        /* \"Lottery.sol\":3849:3918  require(block.timestamp >= expiration, \"the lottery not expired yet\") */\n    tag_201:\n        /* \"Lottery.sol\":3934:3943  uint256 i */\n      0x00\n        /* \"Lottery.sol\":3929:4114  for (uint256 i = 0; i < tickets.length; i++) {... */\n    tag_204:\n        /* \"Lottery.sol\":3953:3960  tickets */\n      0x06\n        /* \"Lottery.sol\":3953:3967  tickets.length */\n      sload\n        /* \"Lottery.sol\":3949:3967  i < tickets.length */\n      dup2\n      lt\n        /* \"Lottery.sol\":3929:4114  for (uint256 i = 0; i < tickets.length; i++) {... */\n      iszero\n      tag_205\n      jumpi\n        /* \"Lottery.sol\":3988:4006  address payable to */\n      0x00\n        /* \"Lottery.sol\":4017:4024  tickets */\n      0x06\n        /* \"Lottery.sol\":4025:4026  i */\n      dup3\n        /* \"Lottery.sol\":4017:4027  tickets[i] */\n      dup2\n      sload\n      dup2\n      lt\n      tag_208\n      jumpi\n      tag_208\n      tag_149\n      jump\t// in\n    tag_208:\n      0x00\n      swap2\n      dup3\n      mstore\n      0x20\n      dup3\n      keccak256\n      add\n      sload\n        /* \"Lottery.sol\":4042:4049  tickets */\n      0x06\n        /* \"Lottery.sol\":4042:4052  tickets[i] */\n      dup1\n      sload\n      sub(shl(0xa0, 0x01), 0x01)\n        /* \"Lottery.sol\":4017:4027  tickets[i] */\n      swap1\n      swap3\n      and\n      swap4\n      pop\n        /* \"Lottery.sol\":4042:4049  tickets */\n      swap1\n        /* \"Lottery.sol\":4050:4051  i */\n      dup5\n      swap1\n        /* \"Lottery.sol\":4042:4052  tickets[i] */\n      dup2\n      lt\n      tag_211\n      jumpi\n      tag_211\n      tag_149\n      jump\t// in\n    tag_211:\n      0x00\n      swap2\n      dup3\n      mstore\n      0x20\n      dup3\n      keccak256\n      add\n        /* \"Lottery.sol\":4042:4065  tickets[i] = address(0) */\n      dup1\n      sload\n      not(0xffffffffffffffffffffffffffffffffffffffff)\n      and\n      sub(shl(0xa0, 0x01), 0x01)\n      swap4\n      dup5\n      and\n      or\n      swap1\n      sstore\n        /* \"Lottery.sol\":4079:4103  to.transfer(ticketPrice) */\n      mload(0x40)\n        /* \"Lottery.sol\":4079:4090  to.transfer */\n      swap2\n      dup4\n      and\n      swap2\n        /* \"Lottery.sol\":183:191  20 ether */\n      0x01158e460913d00000\n      swap1\n        /* \"Lottery.sol\":4042:4052  tickets[i] */\n      dup3\n        /* \"Lottery.sol\":4079:4103  to.transfer(ticketPrice) */\n      dup2\n        /* \"Lottery.sol\":4042:4052  tickets[i] */\n      dup2\n        /* \"Lottery.sol\":4079:4103  to.transfer(ticketPrice) */\n      dup2\n        /* \"Lottery.sol\":183:191  20 ether */\n      dup6\n        /* \"Lottery.sol\":4079:4090  to.transfer */\n      dup9\n        /* \"Lottery.sol\":4042:4052  tickets[i] */\n      dup4\n        /* \"Lottery.sol\":4079:4103  to.transfer(ticketPrice) */\n      call\n      swap4\n      pop\n      pop\n      pop\n      pop\n      iszero\n      dup1\n      iszero\n      tag_214\n      jumpi\n      returndatasize\n      0x00\n      dup1\n      returndatacopy\n      revert(0x00, returndatasize)\n    tag_214:\n      pop\n        /* \"Lottery.sol\":3974:4114  {... */\n      pop\n        /* \"Lottery.sol\":3969:3972  i++ */\n      dup1\n      dup1\n      tag_215\n      swap1\n      tag_196\n      jump\t// in\n    tag_215:\n      swap2\n      pop\n      pop\n        /* \"Lottery.sol\":3929:4114  for (uint256 i = 0; i < tickets.length; i++) {... */\n      jump(tag_204)\n    tag_205:\n      pop\n        /* \"Lottery.sol\":4123:4137  delete tickets */\n      tag_216\n        /* \"Lottery.sol\":4130:4137  tickets */\n      0x06\n      0x00\n        /* \"Lottery.sol\":4123:4137  delete tickets */\n      tag_162\n      jump\t// in\n    tag_216:\n        /* \"Lottery.sol\":3811:4144  function RefundAll() public {... */\n      jump\t// out\n        /* \"Lottery.sol\":4518:4632  function CurrentWinningReward() public view returns (uint256) {... */\n    tag_106:\n        /* \"Lottery.sol\":4597:4604  tickets */\n      0x06\n        /* \"Lottery.sol\":4597:4611  tickets.length */\n      sload\n        /* \"Lottery.sol\":4571:4578  uint256 */\n      0x00\n      swap1\n        /* \"Lottery.sol\":4597:4625  tickets.length * ticketPrice */\n      tag_198\n      swap1\n        /* \"Lottery.sol\":183:191  20 ether */\n      0x01158e460913d00000\n      swap1\n        /* \"Lottery.sol\":4597:4625  tickets.length * ticketPrice */\n      tag_152\n      jump\t// in\n        /* \"Lottery.sol\":3152:3354  function restartDraw() public isOperator {... */\n    tag_121:\n        /* \"Lottery.sol\":1098:1113  lotteryOperator */\n      and(sub(shl(0xa0, 0x01), 0x01), sload(0x01))\n        /* \"Lottery.sol\":1084:1094  msg.sender */\n      caller\n        /* \"Lottery.sol\":1084:1113  msg.sender == lotteryOperator */\n      eq\n        /* \"Lottery.sol\":1062:1174  require(... */\n      tag_221\n      jumpi\n      mload(0x40)\n      shl(0xe5, 0x461bcd)\n      dup2\n      mstore\n        /* \"#utility.yul\":2006:2008   */\n      0x20\n        /* \"Lottery.sol\":1062:1174  require(... */\n      0x04\n      dup3\n      add\n        /* \"#utility.yul\":1988:2009   */\n      mstore\n        /* \"#utility.yul\":2045:2047   */\n      0x22\n        /* \"#utility.yul\":2025:2043   */\n      0x24\n      dup3\n      add\n        /* \"#utility.yul\":2018:2048   */\n      mstore\n        /* \"#utility.yul\":2084:2118   */\n      0x43616c6c6572206973206e6f7420746865206c6f7474657279206f7065726174\n        /* \"#utility.yul\":2064:2082   */\n      0x44\n      dup3\n      add\n        /* \"#utility.yul\":2057:2119   */\n      mstore\n      shl(0xf1, 0x37b9)\n        /* \"#utility.yul\":2135:2153   */\n      0x64\n      dup3\n      add\n        /* \"#utility.yul\":2128:2160   */\n      mstore\n        /* \"#utility.yul\":2177:2196   */\n      0x84\n      add\n        /* \"Lottery.sol\":1062:1174  require(... */\n      tag_129\n        /* \"#utility.yul\":1804:2202   */\n      jump\n        /* \"Lottery.sol\":1062:1174  require(... */\n    tag_221:\n        /* \"Lottery.sol\":3211:3218  tickets */\n      0x06\n        /* \"Lottery.sol\":3211:3225  tickets.length */\n      sload\n        /* \"Lottery.sol\":3211:3230  tickets.length == 0 */\n      iszero\n        /* \"Lottery.sol\":3203:3273  require(tickets.length == 0, \"Cannot Restart Draw as Draw is in play\") */\n      tag_224\n      jumpi\n      mload(0x40)\n      shl(0xe5, 0x461bcd)\n      dup2\n      mstore\n        /* \"#utility.yul\":6605:6607   */\n      0x20\n        /* \"Lottery.sol\":3203:3273  require(tickets.length == 0, \"Cannot Restart Draw as Draw is in play\") */\n      0x04\n      dup3\n      add\n        /* \"#utility.yul\":6587:6608   */\n      mstore\n        /* \"#utility.yul\":6644:6646   */\n      0x26\n        /* \"#utility.yul\":6624:6642   */\n      0x24\n      dup3\n      add\n        /* \"#utility.yul\":6617:6647   */\n      mstore\n        /* \"#utility.yul\":6683:6717   */\n      0x43616e6e6f742052657374617274204472617720617320447261772069732069\n        /* \"#utility.yul\":6663:6681   */\n      0x44\n      dup3\n      add\n        /* \"#utility.yul\":6656:6718   */\n      mstore\n        /* \"#utility.yul\":6754:6762   */\n      0x6e20706c61790000000000000000000000000000000000000000000000000000\n        /* \"#utility.yul\":6734:6752   */\n      0x64\n      dup3\n      add\n        /* \"#utility.yul\":6727:6763   */\n      mstore\n        /* \"#utility.yul\":6780:6799   */\n      0x84\n      add\n        /* \"Lottery.sol\":3203:3273  require(tickets.length == 0, \"Cannot Restart Draw as Draw is in play\") */\n      tag_129\n        /* \"#utility.yul\":6403:6805   */\n      jump\n        /* \"Lottery.sol\":3203:3273  require(tickets.length == 0, \"Cannot Restart Draw as Draw is in play\") */\n    tag_224:\n        /* \"Lottery.sol\":3284:3298  delete tickets */\n      tag_227\n        /* \"Lottery.sol\":3291:3298  tickets */\n      0x06\n      0x00\n        /* \"Lottery.sol\":3284:3298  delete tickets */\n      tag_162\n      jump\t// in\n    tag_227:\n        /* \"Lottery.sol\":3321:3347  block.timestamp + duration */\n      tag_228\n        /* \"Lottery.sol\":398:404  5 days */\n      0x069780\n        /* \"Lottery.sol\":3321:3336  block.timestamp */\n      timestamp\n        /* \"Lottery.sol\":3321:3347  block.timestamp + duration */\n      tag_159\n      jump\t// in\n    tag_228:\n        /* \"Lottery.sol\":3308:3318  expiration */\n      0x00\n        /* \"Lottery.sol\":3308:3347  expiration = block.timestamp + duration */\n      sstore\n        /* \"Lottery.sol\":3152:3354  function restartDraw() public isOperator {... */\n      jump\t// out\n        /* \"@openzeppelin/contracts/utils/Strings.sol\":392:1095   */\n    tag_180:\n        /* \"@openzeppelin/contracts/utils/Strings.sol\":448:461   */\n      0x60\n        /* \"@openzeppelin/contracts/utils/Strings.sol\":665:670   */\n      dup2\n        /* \"@openzeppelin/contracts/utils/Strings.sol\":674:675   */\n      0x00\n        /* \"@openzeppelin/contracts/utils/Strings.sol\":665:675   */\n      sub\n        /* \"@openzeppelin/contracts/utils/Strings.sol\":661:712   */\n      tag_230\n      jumpi\n      pop\n      pop\n        /* \"@openzeppelin/contracts/utils/Strings.sol\":691:701   */\n      0x40\n      dup1\n      mload\n      dup1\n      dup3\n      add\n      swap1\n      swap2\n      mstore\n      0x01\n      dup2\n      mstore\n      shl(0xfc, 0x03)\n      0x20\n      dup3\n      add\n      mstore\n      swap1\n        /* \"@openzeppelin/contracts/utils/Strings.sol\":392:1095   */\n      jump\t// out\n        /* \"@openzeppelin/contracts/utils/Strings.sol\":661:712   */\n    tag_230:\n        /* \"@openzeppelin/contracts/utils/Strings.sol\":736:741   */\n      dup2\n        /* \"@openzeppelin/contracts/utils/Strings.sol\":721:733   */\n      0x00\n        /* \"@openzeppelin/contracts/utils/Strings.sol\":775:850   */\n    tag_231:\n        /* \"@openzeppelin/contracts/utils/Strings.sol\":782:791   */\n      dup2\n      iszero\n        /* \"@openzeppelin/contracts/utils/Strings.sol\":775:850   */\n      tag_232\n      jumpi\n        /* \"@openzeppelin/contracts/utils/Strings.sol\":807:815   */\n      dup1\n      tag_233\n      dup2\n      tag_196\n      jump\t// in\n    tag_233:\n      swap2\n      pop\n        /* \"@openzeppelin/contracts/utils/Strings.sol\":829:839   */\n      tag_234\n      swap1\n      pop\n        /* \"@openzeppelin/contracts/utils/Strings.sol\":837:839   */\n      0x0a\n        /* \"@openzeppelin/contracts/utils/Strings.sol\":829:839   */\n      dup4\n      tag_155\n      jump\t// in\n    tag_234:\n      swap2\n      pop\n        /* \"@openzeppelin/contracts/utils/Strings.sol\":775:850   */\n      jump(tag_231)\n    tag_232:\n        /* \"@openzeppelin/contracts/utils/Strings.sol\":859:878   */\n      0x00\n        /* \"@openzeppelin/contracts/utils/Strings.sol\":891:897   */\n      dup2\n        /* \"@openzeppelin/contracts/utils/Strings.sol\":881:898   */\n      0xffffffffffffffff\n      dup2\n      gt\n      iszero\n      tag_236\n      jumpi\n      tag_236\n      tag_237\n      jump\t// in\n    tag_236:\n      mload(0x40)\n      swap1\n      dup1\n      dup3\n      mstore\n      dup1\n      0x1f\n      add\n      not(0x1f)\n      and\n      0x20\n      add\n      dup3\n      add\n      0x40\n      mstore\n      dup1\n      iszero\n      tag_238\n      jumpi\n      0x20\n      dup3\n      add\n      dup2\n      dup1\n      calldatasize\n      dup4\n      calldatacopy\n      add\n      swap1\n      pop\n    tag_238:\n      pop\n        /* \"@openzeppelin/contracts/utils/Strings.sol\":859:898   */\n      swap1\n      pop\n        /* \"@openzeppelin/contracts/utils/Strings.sol\":908:1058   */\n    tag_239:\n        /* \"@openzeppelin/contracts/utils/Strings.sol\":915:925   */\n      dup5\n      iszero\n        /* \"@openzeppelin/contracts/utils/Strings.sol\":908:1058   */\n      tag_240\n      jumpi\n        /* \"@openzeppelin/contracts/utils/Strings.sol\":941:952   */\n      tag_241\n        /* \"@openzeppelin/contracts/utils/Strings.sol\":951:952   */\n      0x01\n        /* \"@openzeppelin/contracts/utils/Strings.sol\":941:952   */\n      dup4\n      tag_142\n      jump\t// in\n    tag_241:\n      swap2\n      pop\n        /* \"@openzeppelin/contracts/utils/Strings.sol\":1009:1019   */\n      tag_242\n        /* \"@openzeppelin/contracts/utils/Strings.sol\":1017:1019   */\n      0x0a\n        /* \"@openzeppelin/contracts/utils/Strings.sol\":1009:1014   */\n      dup7\n        /* \"@openzeppelin/contracts/utils/Strings.sol\":1009:1019   */\n      tag_146\n      jump\t// in\n    tag_242:\n        /* \"@openzeppelin/contracts/utils/Strings.sol\":996:1020   */\n      tag_243\n      swap1\n        /* \"@openzeppelin/contracts/utils/Strings.sol\":996:998   */\n      0x30\n        /* \"@openzeppelin/contracts/utils/Strings.sol\":996:1020   */\n      tag_159\n      jump\t// in\n    tag_243:\n        /* \"@openzeppelin/contracts/utils/Strings.sol\":983:1022   */\n      0xf8\n      shl\n        /* \"@openzeppelin/contracts/utils/Strings.sol\":966:972   */\n      dup2\n        /* \"@openzeppelin/contracts/utils/Strings.sol\":973:979   */\n      dup4\n        /* \"@openzeppelin/contracts/utils/Strings.sol\":966:980   */\n      dup2\n      mload\n      dup2\n      lt\n      tag_245\n      jumpi\n      tag_245\n      tag_149\n      jump\t// in\n    tag_245:\n      0x20\n      add\n      add\n        /* \"@openzeppelin/contracts/utils/Strings.sol\":966:1022   */\n      swap1\n      not(0xffffffffffffffffffffffffffffffffffffffffffffffffffffffffffffff)\n      and\n      swap1\n      dup2\n      0x00\n      byte\n      swap1\n      mstore8\n      pop\n        /* \"@openzeppelin/contracts/utils/Strings.sol\":1036:1047   */\n      tag_246\n        /* \"@openzeppelin/contracts/utils/Strings.sol\":1045:1047   */\n      0x0a\n        /* \"@openzeppelin/contracts/utils/Strings.sol\":1036:1047   */\n      dup7\n      tag_155\n      jump\t// in\n    tag_246:\n      swap5\n      pop\n        /* \"@openzeppelin/contracts/utils/Strings.sol\":908:1058   */\n      jump(tag_239)\n    tag_240:\n        /* \"@openzeppelin/contracts/utils/Strings.sol\":1081:1087   */\n      swap5\n        /* \"@openzeppelin/contracts/utils/Strings.sol\":392:1095   */\n      swap4\n      pop\n      pop\n      pop\n      pop\n      jump\t// out\n    tag_162:\n      pop\n      dup1\n      sload\n      0x00\n      dup3\n      sstore\n      swap1\n      0x00\n      mstore\n      keccak256(0x00, 0x20)\n      swap1\n      dup2\n      add\n      swap1\n      tag_248\n      swap2\n      swap1\n      tag_249\n      jump\t// in\n    tag_248:\n      pop\n      jump\t// out\n    tag_249:\n    tag_250:\n      dup1\n      dup3\n      gt\n      iszero\n      tag_251\n      jumpi\n      0x00\n      dup2\n      sstore\n      0x01\n      add\n      jump(tag_250)\n    tag_251:\n      pop\n      swap1\n      jump\t// out\n        /* \"#utility.yul\":196:877   */\n    tag_63:\n        /* \"#utility.yul\":367:369   */\n      0x20\n        /* \"#utility.yul\":419:440   */\n      dup1\n      dup3\n      mstore\n        /* \"#utility.yul\":489:502   */\n      dup3\n      mload\n        /* \"#utility.yul\":392:410   */\n      dup3\n      dup3\n      add\n        /* \"#utility.yul\":511:533   */\n      dup2\n      swap1\n      mstore\n        /* \"#utility.yul\":338:342   */\n      0x00\n      swap2\n        /* \"#utility.yul\":367:369   */\n      swap1\n        /* \"#utility.yul\":590:605   */\n      dup5\n      dup3\n      add\n      swap1\n        /* \"#utility.yul\":564:566   */\n      0x40\n        /* \"#utility.yul\":549:567   */\n      dup6\n      add\n      swap1\n        /* \"#utility.yul\":338:342   */\n      dup5\n        /* \"#utility.yul\":633:851   */\n    tag_258:\n        /* \"#utility.yul\":647:653   */\n      dup2\n        /* \"#utility.yul\":644:645   */\n      dup2\n        /* \"#utility.yul\":641:654   */\n      lt\n        /* \"#utility.yul\":633:851   */\n      iszero\n      tag_260\n      jumpi\n        /* \"#utility.yul\":712:725   */\n      dup4\n      mload\n      sub(shl(0xa0, 0x01), 0x01)\n        /* \"#utility.yul\":708:770   */\n      and\n        /* \"#utility.yul\":696:771   */\n      dup4\n      mstore\n        /* \"#utility.yul\":826:841   */\n      swap3\n      dup5\n      add\n      swap3\n        /* \"#utility.yul\":791:803   */\n      swap2\n      dup5\n      add\n      swap2\n        /* \"#utility.yul\":669:670   */\n      0x01\n        /* \"#utility.yul\":662:671   */\n      add\n        /* \"#utility.yul\":633:851   */\n      jump(tag_258)\n    tag_260:\n      pop\n        /* \"#utility.yul\":868:871   */\n      swap1\n      swap7\n        /* \"#utility.yul\":196:877   */\n      swap6\n      pop\n      pop\n      pop\n      pop\n      pop\n      pop\n      jump\t// out\n        /* \"#utility.yul\":882:1062   */\n    tag_67:\n        /* \"#utility.yul\":941:947   */\n      0x00\n        /* \"#utility.yul\":994:996   */\n      0x20\n        /* \"#utility.yul\":982:991   */\n      dup3\n        /* \"#utility.yul\":973:980   */\n      dup5\n        /* \"#utility.yul\":969:992   */\n      sub\n        /* \"#utility.yul\":965:997   */\n      slt\n        /* \"#utility.yul\":962:1014   */\n      iszero\n      tag_262\n      jumpi\n        /* \"#utility.yul\":1010:1011   */\n      0x00\n        /* \"#utility.yul\":1007:1008   */\n      dup1\n        /* \"#utility.yul\":1000:1012   */\n      revert\n        /* \"#utility.yul\":962:1014   */\n    tag_262:\n      pop\n        /* \"#utility.yul\":1033:1056   */\n      calldataload\n      swap2\n        /* \"#utility.yul\":882:1062   */\n      swap1\n      pop\n      jump\t// out\n        /* \"#utility.yul\":1490:1799   */\n    tag_111:\n        /* \"#utility.yul\":1549:1555   */\n      0x00\n        /* \"#utility.yul\":1602:1604   */\n      0x20\n        /* \"#utility.yul\":1590:1599   */\n      dup3\n        /* \"#utility.yul\":1581:1588   */\n      dup5\n        /* \"#utility.yul\":1577:1600   */\n      sub\n        /* \"#utility.yul\":1573:1605   */\n      slt\n        /* \"#utility.yul\":1570:1622   */\n      iszero\n      tag_266\n      jumpi\n        /* \"#utility.yul\":1618:1619   */\n      0x00\n        /* \"#utility.yul\":1615:1616   */\n      dup1\n        /* \"#utility.yul\":1608:1620   */\n      revert\n        /* \"#utility.yul\":1570:1622   */\n    tag_266:\n        /* \"#utility.yul\":1657:1666   */\n      dup2\n        /* \"#utility.yul\":1644:1667   */\n      calldataload\n      sub(shl(0xa0, 0x01), 0x01)\n        /* \"#utility.yul\":1700:1705   */\n      dup2\n        /* \"#utility.yul\":1696:1750   */\n      and\n        /* \"#utility.yul\":1689:1694   */\n      dup2\n        /* \"#utility.yul\":1686:1751   */\n      eq\n        /* \"#utility.yul\":1676:1769   */\n      tag_267\n      jumpi\n        /* \"#utility.yul\":1765:1766   */\n      0x00\n        /* \"#utility.yul\":1762:1763   */\n      dup1\n        /* \"#utility.yul\":1755:1767   */\n      revert\n        /* \"#utility.yul\":1676:1769   */\n    tag_267:\n        /* \"#utility.yul\":1788:1793   */\n      swap4\n        /* \"#utility.yul\":1490:1799   */\n      swap3\n      pop\n      pop\n      pop\n      jump\t// out\n        /* \"#utility.yul\":2610:2737   */\n    tag_252:\n        /* \"#utility.yul\":2671:2681   */\n      0x4e487b71\n        /* \"#utility.yul\":2666:2669   */\n      0xe0\n        /* \"#utility.yul\":2662:2682   */\n      shl\n        /* \"#utility.yul\":2659:2660   */\n      0x00\n        /* \"#utility.yul\":2652:2683   */\n      mstore\n        /* \"#utility.yul\":2702:2706   */\n      0x11\n        /* \"#utility.yul\":2699:2700   */\n      0x04\n        /* \"#utility.yul\":2692:2707   */\n      mstore\n        /* \"#utility.yul\":2726:2730   */\n      0x24\n        /* \"#utility.yul\":2723:2724   */\n      0x00\n        /* \"#utility.yul\":2716:2731   */\n      revert\n        /* \"#utility.yul\":2742:2870   */\n    tag_142:\n        /* \"#utility.yul\":2809:2818   */\n      dup2\n      dup2\n      sub\n        /* \"#utility.yul\":2830:2841   */\n      dup2\n      dup2\n      gt\n        /* \"#utility.yul\":2827:2864   */\n      iszero\n      tag_273\n      jumpi\n        /* \"#utility.yul\":2844:2862   */\n      tag_273\n      tag_252\n      jump\t// in\n    tag_273:\n        /* \"#utility.yul\":2742:2870   */\n      swap3\n      swap2\n      pop\n      pop\n      jump\t// out\n        /* \"#utility.yul\":3127:3254   */\n    tag_253:\n        /* \"#utility.yul\":3188:3198   */\n      0x4e487b71\n        /* \"#utility.yul\":3183:3186   */\n      0xe0\n        /* \"#utility.yul\":3179:3199   */\n      shl\n        /* \"#utility.yul\":3176:3177   */\n      0x00\n        /* \"#utility.yul\":3169:3200   */\n      mstore\n        /* \"#utility.yul\":3219:3223   */\n      0x12\n        /* \"#utility.yul\":3216:3217   */\n      0x04\n        /* \"#utility.yul\":3209:3224   */\n      mstore\n        /* \"#utility.yul\":3243:3247   */\n      0x24\n        /* \"#utility.yul\":3240:3241   */\n      0x00\n        /* \"#utility.yul\":3233:3248   */\n      revert\n        /* \"#utility.yul\":3259:3371   */\n    tag_146:\n        /* \"#utility.yul\":3291:3292   */\n      0x00\n        /* \"#utility.yul\":3317:3318   */\n      dup3\n        /* \"#utility.yul\":3307:3342   */\n      tag_278\n      jumpi\n        /* \"#utility.yul\":3322:3340   */\n      tag_278\n      tag_253\n      jump\t// in\n    tag_278:\n      pop\n        /* \"#utility.yul\":3356:3365   */\n      mod\n      swap1\n        /* \"#utility.yul\":3259:3371   */\n      jump\t// out\n        /* \"#utility.yul\":3376:3503   */\n    tag_149:\n        /* \"#utility.yul\":3437:3447   */\n      0x4e487b71\n        /* \"#utility.yul\":3432:3435   */\n      0xe0\n        /* \"#utility.yul\":3428:3448   */\n      shl\n        /* \"#utility.yul\":3425:3426   */\n      0x00\n        /* \"#utility.yul\":3418:3449   */\n      mstore\n        /* \"#utility.yul\":3468:3472   */\n      0x32\n        /* \"#utility.yul\":3465:3466   */\n      0x04\n        /* \"#utility.yul\":3458:3473   */\n      mstore\n        /* \"#utility.yul\":3492:3496   */\n      0x24\n        /* \"#utility.yul\":3489:3490   */\n      0x00\n        /* \"#utility.yul\":3482:3497   */\n      revert\n        /* \"#utility.yul\":3508:3676   */\n    tag_152:\n        /* \"#utility.yul\":3581:3590   */\n      dup1\n      dup3\n      mul\n        /* \"#utility.yul\":3612:3621   */\n      dup2\n      iszero\n        /* \"#utility.yul\":3629:3644   */\n      dup3\n      dup3\n      div\n        /* \"#utility.yul\":3623:3645   */\n      dup5\n      eq\n        /* \"#utility.yul\":3609:3646   */\n      or\n        /* \"#utility.yul\":3599:3670   */\n      tag_273\n      jumpi\n        /* \"#utility.yul\":3650:3668   */\n      tag_273\n      tag_252\n      jump\t// in\n        /* \"#utility.yul\":3681:3801   */\n    tag_155:\n        /* \"#utility.yul\":3721:3722   */\n      0x00\n        /* \"#utility.yul\":3747:3748   */\n      dup3\n        /* \"#utility.yul\":3737:3772   */\n      tag_285\n      jumpi\n        /* \"#utility.yul\":3752:3770   */\n      tag_285\n      tag_253\n      jump\t// in\n    tag_285:\n      pop\n        /* \"#utility.yul\":3786:3795   */\n      div\n      swap1\n        /* \"#utility.yul\":3681:3801   */\n      jump\t// out\n        /* \"#utility.yul\":3806:3931   */\n    tag_159:\n        /* \"#utility.yul\":3871:3880   */\n      dup1\n      dup3\n      add\n        /* \"#utility.yul\":3892:3902   */\n      dup1\n      dup3\n      gt\n        /* \"#utility.yul\":3889:3925   */\n      iszero\n      tag_273\n      jumpi\n        /* \"#utility.yul\":3905:3923   */\n      tag_273\n      tag_252\n      jump\t// in\n        /* \"#utility.yul\":4287:4537   */\n    tag_254:\n        /* \"#utility.yul\":4372:4373   */\n      0x00\n        /* \"#utility.yul\":4382:4495   */\n    tag_291:\n        /* \"#utility.yul\":4396:4402   */\n      dup4\n        /* \"#utility.yul\":4393:4394   */\n      dup2\n        /* \"#utility.yul\":4390:4403   */\n      lt\n        /* \"#utility.yul\":4382:4495   */\n      iszero\n      tag_293\n      jumpi\n        /* \"#utility.yul\":4472:4483   */\n      dup2\n      dup2\n      add\n        /* \"#utility.yul\":4466:4484   */\n      mload\n        /* \"#utility.yul\":4453:4464   */\n      dup4\n      dup3\n      add\n        /* \"#utility.yul\":4446:4485   */\n      mstore\n        /* \"#utility.yul\":4418:4420   */\n      0x20\n        /* \"#utility.yul\":4411:4421   */\n      add\n        /* \"#utility.yul\":4382:4495   */\n      jump(tag_291)\n    tag_293:\n      pop\n      pop\n        /* \"#utility.yul\":4529:4530   */\n      0x00\n        /* \"#utility.yul\":4511:4527   */\n      swap2\n      add\n        /* \"#utility.yul\":4504:4531   */\n      mstore\n        /* \"#utility.yul\":4287:4537   */\n      jump\t// out\n        /* \"#utility.yul\":4542:5143   */\n    tag_182:\n        /* \"#utility.yul\":4884:4916   */\n      0x7468652076616c7565206d757374206265206d756c7469706c65206f66200000\n        /* \"#utility.yul\":4879:4882   */\n      dup2\n        /* \"#utility.yul\":4872:4917   */\n      mstore\n        /* \"#utility.yul\":4854:4857   */\n      0x00\n        /* \"#utility.yul\":4946:4952   */\n      dup3\n        /* \"#utility.yul\":4940:4953   */\n      mload\n        /* \"#utility.yul\":4962:5037   */\n      tag_295\n        /* \"#utility.yul\":5030:5036   */\n      dup2\n        /* \"#utility.yul\":5025:5027   */\n      0x1e\n        /* \"#utility.yul\":5020:5023   */\n      dup6\n        /* \"#utility.yul\":5016:5028   */\n      add\n        /* \"#utility.yul\":5009:5013   */\n      0x20\n        /* \"#utility.yul\":5001:5007   */\n      dup8\n        /* \"#utility.yul\":4997:5014   */\n      add\n        /* \"#utility.yul\":4962:5037   */\n      tag_254\n      jump\t// in\n    tag_295:\n        /* \"#utility.yul\":5101:5109   */\n      0x2045746865720000000000000000000000000000000000000000000000000000\n        /* \"#utility.yul\":5096:5098   */\n      0x1e\n        /* \"#utility.yul\":5056:5072   */\n      swap4\n      swap1\n      swap2\n      add\n        /* \"#utility.yul\":5088:5099   */\n      swap3\n      dup4\n      add\n        /* \"#utility.yul\":5081:5110   */\n      mstore\n      pop\n        /* \"#utility.yul\":5134:5136   */\n      0x24\n        /* \"#utility.yul\":5126:5137   */\n      add\n      swap2\n        /* \"#utility.yul\":4542:5143   */\n      swap1\n      pop\n      jump\t// out\n        /* \"#utility.yul\":5148:5544   */\n    tag_185:\n        /* \"#utility.yul\":5297:5299   */\n      0x20\n        /* \"#utility.yul\":5286:5295   */\n      dup2\n        /* \"#utility.yul\":5279:5300   */\n      mstore\n        /* \"#utility.yul\":5260:5264   */\n      0x00\n        /* \"#utility.yul\":5329:5335   */\n      dup3\n        /* \"#utility.yul\":5323:5336   */\n      mload\n        /* \"#utility.yul\":5372:5378   */\n      dup1\n        /* \"#utility.yul\":5367:5369   */\n      0x20\n        /* \"#utility.yul\":5356:5365   */\n      dup5\n        /* \"#utility.yul\":5352:5370   */\n      add\n        /* \"#utility.yul\":5345:5379   */\n      mstore\n        /* \"#utility.yul\":5388:5467   */\n      tag_297\n        /* \"#utility.yul\":5460:5466   */\n      dup2\n        /* \"#utility.yul\":5455:5457   */\n      0x40\n        /* \"#utility.yul\":5444:5453   */\n      dup6\n        /* \"#utility.yul\":5440:5458   */\n      add\n        /* \"#utility.yul\":5435:5437   */\n      0x20\n        /* \"#utility.yul\":5427:5433   */\n      dup8\n        /* \"#utility.yul\":5423:5438   */\n      add\n        /* \"#utility.yul\":5388:5467   */\n      tag_254\n      jump\t// in\n    tag_297:\n        /* \"#utility.yul\":5528:5530   */\n      0x1f\n        /* \"#utility.yul\":5507:5522   */\n      add\n      not(0x1f)\n        /* \"#utility.yul\":5503:5532   */\n      and\n        /* \"#utility.yul\":5488:5533   */\n      swap2\n      swap1\n      swap2\n      add\n        /* \"#utility.yul\":5535:5537   */\n      0x40\n        /* \"#utility.yul\":5484:5538   */\n      add\n      swap3\n        /* \"#utility.yul\":5148:5544   */\n      swap2\n      pop\n      pop\n      jump\t// out\n        /* \"#utility.yul\":5907:6042   */\n    tag_196:\n        /* \"#utility.yul\":5946:5949   */\n      0x00\n        /* \"#utility.yul\":5967:5984   */\n      0x01\n      dup3\n      add\n        /* \"#utility.yul\":5964:6007   */\n      tag_301\n      jumpi\n        /* \"#utility.yul\":5987:6005   */\n      tag_301\n      tag_252\n      jump\t// in\n    tag_301:\n      pop\n        /* \"#utility.yul\":6034:6035   */\n      0x01\n        /* \"#utility.yul\":6023:6036   */\n      add\n      swap1\n        /* \"#utility.yul\":5907:6042   */\n      jump\t// out\n        /* \"#utility.yul\":6810:6937   */\n    tag_237:\n        /* \"#utility.yul\":6871:6881   */\n      0x4e487b71\n        /* \"#utility.yul\":6866:6869   */\n      0xe0\n        /* \"#utility.yul\":6862:6882   */\n      shl\n        /* \"#utility.yul\":6859:6860   */\n      0x00\n        /* \"#utility.yul\":6852:6883   */\n      mstore\n        /* \"#utility.yul\":6902:6906   */\n      0x41\n        /* \"#utility.yul\":6899:6900   */\n      0x04\n        /* \"#utility.yul\":6892:6907   */\n      mstore\n        /* \"#utility.yul\":6926:6930   */\n      0x24\n        /* \"#utility.yul\":6923:6924   */\n      0x00\n        /* \"#utility.yul\":6916:6931   */\n      revert\n\n    auxdata: 0xa2646970667358221220f7eeb5384235f8adc5f9792c981560147c82157ee8fdd3b07274b802b69e523b64736f6c63430008110033\n}\n",
    "bytecode": {
      "linkReferences": {},
      "object": "6080604052600060025534801561001557600080fd5b50600180546001600160a01b03191633179055610035620697804261003d565b600055610064565b8082018082111561005e57634e487b7160e01b600052601160045260246000fd5b92915050565b610f8c806100736000396000f3fe6080604052600436106101805760003560e01c806371827b7b116100d6578063ba946d791161007f578063ea3a149911610059578063ea3a1499146103c1578063f2613269146103ee578063fe1881841461040357600080fd5b8063ba946d7914610360578063c6944fa014610376578063dd64e5341461038b57600080fd5b806396c85ef3116100b057806396c85ef3146103075780639b89470314610336578063a88f46721461034b57600080fd5b806371827b7b146102d557806391d8b14e146102ea57806393a563b5146102f257600080fd5b80634665096d1161013857806350b447121161011257806350b44712146102685780635a58acdd146102a05780636032a4f9146102c057600080fd5b80634665096d1461021b5780634788af7c146102315780634ed026221461024657600080fd5b80630fb5a6b4116101695780630fb5a6b4146101d05780631209b1f6146101e757806335580df21461020457600080fd5b806306f7f3bf146101855780630789c607146101ae575b600080fd5b34801561019157600080fd5b5061019b60045481565b6040519081526020015b60405180910390f35b3480156101ba57600080fd5b503360009081526005602052604090205461019b565b3480156101dc57600080fd5b5061019b6206978081565b3480156101f357600080fd5b5061019b6801158e460913d0000081565b34801561021057600080fd5b50610219610423565b005b34801561022757600080fd5b5061019b60005481565b34801561023d57600080fd5b506102196104ca565b34801561025257600080fd5b5061025b61070a565b6040516101a59190610d21565b34801561027457600080fd5b50610288610283366004610d6e565b61076c565b6040516001600160a01b0390911681526020016101a5565b3480156102ac57600080fd5b50600154610288906001600160a01b031681565b3480156102cc57600080fd5b5061019b600381565b3480156102e157600080fd5b50610219610796565b610219610835565b3480156102fe57600080fd5b5061019b610977565b34801561031357600080fd5b5033600090815260056020526040902054151560405190151581526020016101a5565b34801561034257600080fd5b5061019b601981565b34801561035757600080fd5b5061021961098d565b34801561036c57600080fd5b5061019b60025481565b34801561038257600080fd5b5061019b610ab3565b34801561039757600080fd5b5061019b6103a6366004610d87565b6001600160a01b031660009081526005602052604090205490565b3480156103cd57600080fd5b5061019b6103dc366004610d87565b60056020526000908152604090205481565b3480156103fa57600080fd5b50610219610acd565b34801561040f57600080fd5b50600354610288906001600160a01b031681565b6001546001600160a01b0316331461048d5760405162461bcd60e51b815260206004820152602260248201527f43616c6c6572206973206e6f7420746865206c6f7474657279206f706572617460448201526137b960f11b60648201526084015b60405180910390fd5b600280546000918290556040513392839183156108fc0291849190818181858888f193505050501580156104c5573d6000803e3d6000fd5b505050565b6001546001600160a01b0316331461052f5760405162461bcd60e51b815260206004820152602260248201527f43616c6c6572206973206e6f7420746865206c6f7474657279206f706572617460448201526137b960f11b6064820152608401610484565b60065460021061058c5760405162461bcd60e51b815260206004820152602260248201527f6c657373207468616e2032207469636b65747320776572652070757263686173604482015261195960f21b6064820152608401610484565b60065460009061059c9043610dcd565b604080514260208201529140908201819052915060009060600160408051601f1981840301815291905280516020909101206006549091506000906105e19083610dfc565b90506000600682815481106105f8576105f8610e10565b60009182526020822001546003805473ffffffffffffffffffffffffffffffffffffffff19166001600160a01b039092169182179055600654909250610648906801158e460913d0000090610e26565b905060006064610659600384610e26565b6106639190610e3d565b9050610678816801158e460913d00000610dcd565b6006546106859190610e26565b6001600160a01b038416600090815260056020526040812080549091906106ad908490610e51565b90915550506001600160a01b038316600090815260056020526040812054600455600280548392906106e0908490610e51565b909155506106f2905060066000610ce7565b6106ff6206978042610e51565b600055505050505050565b6060600680548060200260200160405190810160405280929190818152602001828054801561076257602002820191906000526020600020905b81546001600160a01b03168152600190910190602001808311610744575b5050505050905090565b6006818154811061077c57600080fd5b6000918252602090912001546001600160a01b0316905081565b336000908152600560205260409020546107f25760405162461bcd60e51b815260206004820152601660248201527f43616c6c6572206973206e6f7420612077696e6e6572000000000000000000006044820152606401610484565b3360008181526005602052604080822080549083905590519091839183156108fc0291849190818181858888f193505050501580156104c5573d6000803e3d6000fd5b6108486801158e460913d0000034610dfc565b1561085b6801158e460913d00000610bc6565b60405160200161086b9190610e88565b604051602081830303815290604052906108985760405162461bcd60e51b81526004016104849190610ef4565b5060006108ae6801158e460913d0000034610e3d565b90506108b8610977565b8111156109075760405162461bcd60e51b815260206004820152601d60248201527f4e6f7420656e6f756768207469636b65747320617661696c61626c652e0000006044820152606401610484565b60005b8181101561097357600680546001810182556000919091527ff652222313e28459528d920b65115c16c04f3efc82aaedc97be59f3f377c0d3f01805473ffffffffffffffffffffffffffffffffffffffff1916331790558061096b81610f27565b91505061090a565b5050565b600654600090610988906019610dcd565b905090565b6000544210156109df5760405162461bcd60e51b815260206004820152601b60248201527f746865206c6f7474657279206e6f7420657870697265642079657400000000006044820152606401610484565b60005b600654811015610aa457600060068281548110610a0157610a01610e10565b6000918252602082200154600680546001600160a01b0390921693509084908110610a2e57610a2e610e10565b60009182526020822001805473ffffffffffffffffffffffffffffffffffffffff19166001600160a01b03938416179055604051918316916801158e460913d000009082818181858883f19350505050158015610a8f573d6000803e3d6000fd5b50508080610a9c90610f27565b9150506109e2565b50610ab160066000610ce7565b565b600654600090610988906801158e460913d0000090610e26565b6001546001600160a01b03163314610b325760405162461bcd60e51b815260206004820152602260248201527f43616c6c6572206973206e6f7420746865206c6f7474657279206f706572617460448201526137b960f11b6064820152608401610484565b60065415610ba85760405162461bcd60e51b815260206004820152602660248201527f43616e6e6f74205265737461727420447261772061732044726177206973206960448201527f6e20706c617900000000000000000000000000000000000000000000000000006064820152608401610484565b610bb460066000610ce7565b610bc16206978042610e51565b600055565b606081600003610bed5750506040805180820190915260018152600360fc1b602082015290565b8160005b8115610c175780610c0181610f27565b9150610c109050600a83610e3d565b9150610bf1565b60008167ffffffffffffffff811115610c3257610c32610f40565b6040519080825280601f01601f191660200182016040528015610c5c576020820181803683370190505b5090505b8415610cdf57610c71600183610dcd565b9150610c7e600a86610dfc565b610c89906030610e51565b60f81b818381518110610c9e57610c9e610e10565b60200101907effffffffffffffffffffffffffffffffffffffffffffffffffffffffffffff1916908160001a905350610cd8600a86610e3d565b9450610c60565b949350505050565b5080546000825590600052602060002090810190610d059190610d08565b50565b5b80821115610d1d5760008155600101610d09565b5090565b6020808252825182820181905260009190848201906040850190845b81811015610d625783516001600160a01b031683529284019291840191600101610d3d565b50909695505050505050565b600060208284031215610d8057600080fd5b5035919050565b600060208284031215610d9957600080fd5b81356001600160a01b0381168114610db057600080fd5b9392505050565b634e487b7160e01b600052601160045260246000fd5b81810381811115610de057610de0610db7565b92915050565b634e487b7160e01b600052601260045260246000fd5b600082610e0b57610e0b610de6565b500690565b634e487b7160e01b600052603260045260246000fd5b8082028115828204841417610de057610de0610db7565b600082610e4c57610e4c610de6565b500490565b80820180821115610de057610de0610db7565b60005b83811015610e7f578181015183820152602001610e67565b50506000910152565b7f7468652076616c7565206d757374206265206d756c7469706c65206f66200000815260008251610ec081601e850160208701610e64565b7f2045746865720000000000000000000000000000000000000000000000000000601e939091019283015250602401919050565b6020815260008251806020840152610f13816040850160208701610e64565b601f01601f19169190910160400192915050565b600060018201610f3957610f39610db7565b5060010190565b634e487b7160e01b600052604160045260246000fdfea2646970667358221220f7eeb5384235f8adc5f9792c981560147c82157ee8fdd3b07274b802b69e523b64736f6c63430008110033",
      "opcodes": "PUSH1 0x80 PUSH1 0x40 MSTORE PUSH1 0x0 PUSH1 0x2 SSTORE CALLVALUE DUP1 ISZERO PUSH2 0x15 JUMPI PUSH1 0x0 DUP1 REVERT JUMPDEST POP PUSH1 0x1 DUP1 SLOAD PUSH1 0x1 PUSH1 0x1 PUSH1 0xA0 SHL SUB NOT AND CALLER OR SWAP1 SSTORE PUSH2 0x35 PUSH3 0x69780 TIMESTAMP PUSH2 0x3D JUMP JUMPDEST PUSH1 0x0 SSTORE PUSH2 0x64 JUMP JUMPDEST DUP1 DUP3 ADD DUP1 DUP3 GT ISZERO PUSH2 0x5E JUMPI PUSH4 0x4E487B71 PUSH1 0xE0 SHL PUSH1 0x0 MSTORE PUSH1 0x11 PUSH1 0x4 MSTORE PUSH1 0x24 PUSH1 0x0 REVERT JUMPDEST SWAP3 SWAP2 POP POP JUMP JUMPDEST PUSH2 0xF8C DUP1 PUSH2 0x73 PUSH1 0x0 CODECOPY PUSH1 0x0 RETURN INVALID PUSH1 0x80 PUSH1 0x40 MSTORE PUSH1 0x4 CALLDATASIZE LT PUSH2 0x180 JUMPI PUSH1 0x0 CALLDATALOAD PUSH1 0xE0 SHR DUP1 PUSH4 0x71827B7B GT PUSH2 0xD6 JUMPI DUP1 PUSH4 0xBA946D79 GT PUSH2 0x7F JUMPI DUP1 PUSH4 0xEA3A1499 GT PUSH2 0x59 JUMPI DUP1 PUSH4 0xEA3A1499 EQ PUSH2 0x3C1 JUMPI DUP1 PUSH4 0xF2613269 EQ PUSH2 0x3EE JUMPI DUP1 PUSH4 0xFE188184 EQ PUSH2 0x403 JUMPI PUSH1 0x0 DUP1 REVERT JUMPDEST DUP1 PUSH4 0xBA946D79 EQ PUSH2 0x360 JUMPI DUP1 PUSH4 0xC6944FA0 EQ PUSH2 0x376 JUMPI DUP1 PUSH4 0xDD64E534 EQ PUSH2 0x38B JUMPI PUSH1 0x0 DUP1 REVERT JUMPDEST DUP1 PUSH4 0x96C85EF3 GT PUSH2 0xB0 JUMPI DUP1 PUSH4 0x96C85EF3 EQ PUSH2 0x307 JUMPI DUP1 PUSH4 0x9B894703 EQ PUSH2 0x336 JUMPI DUP1 PUSH4 0xA88F4672 EQ PUSH2 0x34B JUMPI PUSH1 0x0 DUP1 REVERT JUMPDEST DUP1 PUSH4 0x71827B7B EQ PUSH2 0x2D5 JUMPI DUP1 PUSH4 0x91D8B14E EQ PUSH2 0x2EA JUMPI DUP1 PUSH4 0x93A563B5 EQ PUSH2 0x2F2 JUMPI PUSH1 0x0 DUP1 REVERT JUMPDEST DUP1 PUSH4 0x4665096D GT PUSH2 0x138 JUMPI DUP1 PUSH4 0x50B44712 GT PUSH2 0x112 JUMPI DUP1 PUSH4 0x50B44712 EQ PUSH2 0x268 JUMPI DUP1 PUSH4 0x5A58ACDD EQ PUSH2 0x2A0 JUMPI DUP1 PUSH4 0x6032A4F9 EQ PUSH2 0x2C0 JUMPI PUSH1 0x0 DUP1 REVERT JUMPDEST DUP1 PUSH4 0x4665096D EQ PUSH2 0x21B JUMPI DUP1 PUSH4 0x4788AF7C EQ PUSH2 0x231 JUMPI DUP1 PUSH4 0x4ED02622 EQ PUSH2 0x246 JUMPI PUSH1 0x0 DUP1 REVERT JUMPDEST DUP1 PUSH4 0xFB5A6B4 GT PUSH2 0x169 JUMPI DUP1 PUSH4 0xFB5A6B4 EQ PUSH2 0x1D0 JUMPI DUP1 PUSH4 0x1209B1F6 EQ PUSH2 0x1E7 JUMPI DUP1 PUSH4 0x35580DF2 EQ PUSH2 0x204 JUMPI PUSH1 0x0 DUP1 REVERT JUMPDEST DUP1 PUSH4 0x6F7F3BF EQ PUSH2 0x185 JUMPI DUP1 PUSH4 0x789C607 EQ PUSH2 0x1AE JUMPI JUMPDEST PUSH1 0x0 DUP1 REVERT JUMPDEST CALLVALUE DUP1 ISZERO PUSH2 0x191 JUMPI PUSH1 0x0 DUP1 REVERT JUMPDEST POP PUSH2 0x19B PUSH1 0x4 SLOAD DUP2 JUMP JUMPDEST PUSH1 0x40 MLOAD SWAP1 DUP2 MSTORE PUSH1 0x20 ADD JUMPDEST PUSH1 0x40 MLOAD DUP1 SWAP2 SUB SWAP1 RETURN JUMPDEST CALLVALUE DUP1 ISZERO PUSH2 0x1BA JUMPI PUSH1 0x0 DUP1 REVERT JUMPDEST POP CALLER PUSH1 0x0 SWAP1 DUP2 MSTORE PUSH1 0x5 PUSH1 0x20 MSTORE PUSH1 0x40 SWAP1 KECCAK256 SLOAD PUSH2 0x19B JUMP JUMPDEST CALLVALUE DUP1 ISZERO PUSH2 0x1DC JUMPI PUSH1 0x0 DUP1 REVERT JUMPDEST POP PUSH2 0x19B PUSH3 0x69780 DUP2 JUMP JUMPDEST CALLVALUE DUP1 ISZERO PUSH2 0x1F3 JUMPI PUSH1 0x0 DUP1 REVERT JUMPDEST POP PUSH2 0x19B PUSH9 0x1158E460913D00000 DUP2 JUMP JUMPDEST CALLVALUE DUP1 ISZERO PUSH2 0x210 JUMPI PUSH1 0x0 DUP1 REVERT JUMPDEST POP PUSH2 0x219 PUSH2 0x423 JUMP JUMPDEST STOP JUMPDEST CALLVALUE DUP1 ISZERO PUSH2 0x227 JUMPI PUSH1 0x0 DUP1 REVERT JUMPDEST POP PUSH2 0x19B PUSH1 0x0 SLOAD DUP2 JUMP JUMPDEST CALLVALUE DUP1 ISZERO PUSH2 0x23D JUMPI PUSH1 0x0 DUP1 REVERT JUMPDEST POP PUSH2 0x219 PUSH2 0x4CA JUMP JUMPDEST CALLVALUE DUP1 ISZERO PUSH2 0x252 JUMPI PUSH1 0x0 DUP1 REVERT JUMPDEST POP PUSH2 0x25B PUSH2 0x70A JUMP JUMPDEST PUSH1 0x40 MLOAD PUSH2 0x1A5 SWAP2 SWAP1 PUSH2 0xD21 JUMP JUMPDEST CALLVALUE DUP1 ISZERO PUSH2 0x274 JUMPI PUSH1 0x0 DUP1 REVERT JUMPDEST POP PUSH2 0x288 PUSH2 0x283 CALLDATASIZE PUSH1 0x4 PUSH2 0xD6E JUMP JUMPDEST PUSH2 0x76C JUMP JUMPDEST PUSH1 0x40 MLOAD PUSH1 0x1 PUSH1 0x1 PUSH1 0xA0 SHL SUB SWAP1 SWAP2 AND DUP2 MSTORE PUSH1 0x20 ADD PUSH2 0x1A5 JUMP JUMPDEST CALLVALUE DUP1 ISZERO PUSH2 0x2AC JUMPI PUSH1 0x0 DUP1 REVERT JUMPDEST POP PUSH1 0x1 SLOAD PUSH2 0x288 SWAP1 PUSH1 0x1 PUSH1 0x1 PUSH1 0xA0 SHL SUB AND DUP2 JUMP JUMPDEST CALLVALUE DUP1 ISZERO PUSH2 0x2CC JUMPI PUSH1 0x0 DUP1 REVERT JUMPDEST POP PUSH2 0x19B PUSH1 0x3 DUP2 JUMP JUMPDEST CALLVALUE DUP1 ISZERO PUSH2 0x2E1 JUMPI PUSH1 0x0 DUP1 REVERT JUMPDEST POP PUSH2 0x219 PUSH2 0x796 JUMP JUMPDEST PUSH2 0x219 PUSH2 0x835 JUMP JUMPDEST CALLVALUE DUP1 ISZERO PUSH2 0x2FE JUMPI PUSH1 0x0 DUP1 REVERT JUMPDEST POP PUSH2 0x19B PUSH2 0x977 JUMP JUMPDEST CALLVALUE DUP1 ISZERO PUSH2 0x313 JUMPI PUSH1 0x0 DUP1 REVERT JUMPDEST POP CALLER PUSH1 0x0 SWAP1 DUP2 MSTORE PUSH1 0x5 PUSH1 0x20 MSTORE PUSH1 0x40 SWAP1 KECCAK256 SLOAD ISZERO ISZERO PUSH1 0x40 MLOAD SWAP1 ISZERO ISZERO DUP2 MSTORE PUSH1 0x20 ADD PUSH2 0x1A5 JUMP JUMPDEST CALLVALUE DUP1 ISZERO PUSH2 0x342 JUMPI PUSH1 0x0 DUP1 REVERT JUMPDEST POP PUSH2 0x19B PUSH1 0x19 DUP2 JUMP JUMPDEST CALLVALUE DUP1 ISZERO PUSH2 0x357 JUMPI PUSH1 0x0 DUP1 REVERT JUMPDEST POP PUSH2 0x219 PUSH2 0x98D JUMP JUMPDEST CALLVALUE DUP1 ISZERO PUSH2 0x36C JUMPI PUSH1 0x0 DUP1 REVERT JUMPDEST POP PUSH2 0x19B PUSH1 0x2 SLOAD DUP2 JUMP JUMPDEST CALLVALUE DUP1 ISZERO PUSH2 0x382 JUMPI PUSH1 0x0 DUP1 REVERT JUMPDEST POP PUSH2 0x19B PUSH2 0xAB3 JUMP JUMPDEST CALLVALUE DUP1 ISZERO PUSH2 0x397 JUMPI PUSH1 0x0 DUP1 REVERT JUMPDEST POP PUSH2 0x19B PUSH2 0x3A6 CALLDATASIZE PUSH1 0x4 PUSH2 0xD87 JUMP JUMPDEST PUSH1 0x1 PUSH1 0x1 PUSH1 0xA0 SHL SUB AND PUSH1 0x0 SWAP1 DUP2 MSTORE PUSH1 0x5 PUSH1 0x20 MSTORE PUSH1 0x40 SWAP1 KECCAK256 SLOAD SWAP1 JUMP JUMPDEST CALLVALUE DUP1 ISZERO PUSH2 0x3CD JUMPI PUSH1 0x0 DUP1 REVERT JUMPDEST POP PUSH2 0x19B PUSH2 0x3DC CALLDATASIZE PUSH1 0x4 PUSH2 0xD87 JUMP JUMPDEST PUSH1 0x5 PUSH1 0x20 MSTORE PUSH1 0x0 SWAP1 DUP2 MSTORE PUSH1 0x40 SWAP1 KECCAK256 SLOAD DUP2 JUMP JUMPDEST CALLVALUE DUP1 ISZERO PUSH2 0x3FA JUMPI PUSH1 0x0 DUP1 REVERT JUMPDEST POP PUSH2 0x219 PUSH2 0xACD JUMP JUMPDEST CALLVALUE DUP1 ISZERO PUSH2 0x40F JUMPI PUSH1 0x0 DUP1 REVERT JUMPDEST POP PUSH1 0x3 SLOAD PUSH2 0x288 SWAP1 PUSH1 0x1 PUSH1 0x1 PUSH1 0xA0 SHL SUB AND DUP2 JUMP JUMPDEST PUSH1 0x1 SLOAD PUSH1 0x1 PUSH1 0x1 PUSH1 0xA0 SHL SUB AND CALLER EQ PUSH2 0x48D JUMPI PUSH1 0x40 MLOAD PUSH3 0x461BCD PUSH1 0xE5 SHL DUP2 MSTORE PUSH1 0x20 PUSH1 0x4 DUP3 ADD MSTORE PUSH1 0x22 PUSH1 0x24 DUP3 ADD MSTORE PUSH32 0x43616C6C6572206973206E6F7420746865206C6F7474657279206F7065726174 PUSH1 0x44 DUP3 ADD MSTORE PUSH2 0x37B9 PUSH1 0xF1 SHL PUSH1 0x64 DUP3 ADD MSTORE PUSH1 0x84 ADD JUMPDEST PUSH1 0x40 MLOAD DUP1 SWAP2 SUB SWAP1 REVERT JUMPDEST PUSH1 0x2 DUP1 SLOAD PUSH1 0x0 SWAP2 DUP3 SWAP1 SSTORE PUSH1 0x40 MLOAD CALLER SWAP3 DUP4 SWAP2 DUP4 ISZERO PUSH2 0x8FC MUL SWAP2 DUP5 SWAP2 SWAP1 DUP2 DUP2 DUP2 DUP6 DUP9 DUP9 CALL SWAP4 POP POP POP POP ISZERO DUP1 ISZERO PUSH2 0x4C5 JUMPI RETURNDATASIZE PUSH1 0x0 DUP1 RETURNDATACOPY RETURNDATASIZE PUSH1 0x0 REVERT JUMPDEST POP POP POP JUMP JUMPDEST PUSH1 0x1 SLOAD PUSH1 0x1 PUSH1 0x1 PUSH1 0xA0 SHL SUB AND CALLER EQ PUSH2 0x52F JUMPI PUSH1 0x40 MLOAD PUSH3 0x461BCD PUSH1 0xE5 SHL DUP2 MSTORE PUSH1 0x20 PUSH1 0x4 DUP3 ADD MSTORE PUSH1 0x22 PUSH1 0x24 DUP3 ADD MSTORE PUSH32 0x43616C6C6572206973206E6F7420746865206C6F7474657279206F7065726174 PUSH1 0x44 DUP3 ADD MSTORE PUSH2 0x37B9 PUSH1 0xF1 SHL PUSH1 0x64 DUP3 ADD MSTORE PUSH1 0x84 ADD PUSH2 0x484 JUMP JUMPDEST PUSH1 0x6 SLOAD PUSH1 0x2 LT PUSH2 0x58C JUMPI PUSH1 0x40 MLOAD PUSH3 0x461BCD PUSH1 0xE5 SHL DUP2 MSTORE PUSH1 0x20 PUSH1 0x4 DUP3 ADD MSTORE PUSH1 0x22 PUSH1 0x24 DUP3 ADD MSTORE PUSH32 0x6C657373207468616E2032207469636B65747320776572652070757263686173 PUSH1 0x44 DUP3 ADD MSTORE PUSH2 0x1959 PUSH1 0xF2 SHL PUSH1 0x64 DUP3 ADD MSTORE PUSH1 0x84 ADD PUSH2 0x484 JUMP JUMPDEST PUSH1 0x6 SLOAD PUSH1 0x0 SWAP1 PUSH2 0x59C SWAP1 NUMBER PUSH2 0xDCD JUMP JUMPDEST PUSH1 0x40 DUP1 MLOAD TIMESTAMP PUSH1 0x20 DUP3 ADD MSTORE SWAP2 BLOCKHASH SWAP1 DUP3 ADD DUP2 SWAP1 MSTORE SWAP2 POP PUSH1 0x0 SWAP1 PUSH1 0x60 ADD PUSH1 0x40 DUP1 MLOAD PUSH1 0x1F NOT DUP2 DUP5 SUB ADD DUP2 MSTORE SWAP2 SWAP1 MSTORE DUP1 MLOAD PUSH1 0x20 SWAP1 SWAP2 ADD KECCAK256 PUSH1 0x6 SLOAD SWAP1 SWAP2 POP PUSH1 0x0 SWAP1 PUSH2 0x5E1 SWAP1 DUP4 PUSH2 0xDFC JUMP JUMPDEST SWAP1 POP PUSH1 0x0 PUSH1 0x6 DUP3 DUP2 SLOAD DUP2 LT PUSH2 0x5F8 JUMPI PUSH2 0x5F8 PUSH2 0xE10 JUMP JUMPDEST PUSH1 0x0 SWAP2 DUP3 MSTORE PUSH1 0x20 DUP3 KECCAK256 ADD SLOAD PUSH1 0x3 DUP1 SLOAD PUSH20 0xFFFFFFFFFFFFFFFFFFFFFFFFFFFFFFFFFFFFFFFF NOT AND PUSH1 0x1 PUSH1 0x1 PUSH1 0xA0 SHL SUB SWAP1 SWAP3 AND SWAP2 DUP3 OR SWAP1 SSTORE PUSH1 0x6 SLOAD SWAP1 SWAP3 POP PUSH2 0x648 SWAP1 PUSH9 0x1158E460913D00000 SWAP1 PUSH2 0xE26 JUMP JUMPDEST SWAP1 POP PUSH1 0x0 PUSH1 0x64 PUSH2 0x659 PUSH1 0x3 DUP5 PUSH2 0xE26 JUMP JUMPDEST PUSH2 0x663 SWAP2 SWAP1 PUSH2 0xE3D JUMP JUMPDEST SWAP1 POP PUSH2 0x678 DUP2 PUSH9 0x1158E460913D00000 PUSH2 0xDCD JUMP JUMPDEST PUSH1 0x6 SLOAD PUSH2 0x685 SWAP2 SWAP1 PUSH2 0xE26 JUMP JUMPDEST PUSH1 0x1 PUSH1 0x1 PUSH1 0xA0 SHL SUB DUP5 AND PUSH1 0x0 SWAP1 DUP2 MSTORE PUSH1 0x5 PUSH1 0x20 MSTORE PUSH1 0x40 DUP2 KECCAK256 DUP1 SLOAD SWAP1 SWAP2 SWAP1 PUSH2 0x6AD SWAP1 DUP5 SWAP1 PUSH2 0xE51 JUMP JUMPDEST SWAP1 SWAP2 SSTORE POP POP PUSH1 0x1 PUSH1 0x1 PUSH1 0xA0 SHL SUB DUP4 AND PUSH1 0x0 SWAP1 DUP2 MSTORE PUSH1 0x5 PUSH1 0x20 MSTORE PUSH1 0x40 DUP2 KECCAK256 SLOAD PUSH1 0x4 SSTORE PUSH1 0x2 DUP1 SLOAD DUP4 SWAP3 SWAP1 PUSH2 0x6E0 SWAP1 DUP5 SWAP1 PUSH2 0xE51 JUMP JUMPDEST SWAP1 SWAP2 SSTORE POP PUSH2 0x6F2 SWAP1 POP PUSH1 0x6 PUSH1 0x0 PUSH2 0xCE7 JUMP JUMPDEST PUSH2 0x6FF PUSH3 0x69780 TIMESTAMP PUSH2 0xE51 JUMP JUMPDEST PUSH1 0x0 SSTORE POP POP POP POP POP POP JUMP JUMPDEST PUSH1 0x60 PUSH1 0x6 DUP1 SLOAD DUP1 PUSH1 0x20 MUL PUSH1 0x20 ADD PUSH1 0x40 MLOAD SWAP1 DUP2 ADD PUSH1 0x40 MSTORE DUP1 SWAP3 SWAP2 SWAP1 DUP2 DUP2 MSTORE PUSH1 0x20 ADD DUP3 DUP1 SLOAD DUP1 ISZERO PUSH2 0x762 JUMPI PUSH1 0x20 MUL DUP3 ADD SWAP2 SWAP1 PUSH1 0x0 MSTORE PUSH1 0x20 PUSH1 0x0 KECCAK256 SWAP1 JUMPDEST DUP2 SLOAD PUSH1 0x1 PUSH1 0x1 PUSH1 0xA0 SHL SUB AND DUP2 MSTORE PUSH1 0x1 SWAP1 SWAP2 ADD SWAP1 PUSH1 0x20 ADD DUP1 DUP4 GT PUSH2 0x744 JUMPI JUMPDEST POP POP POP POP POP SWAP1 POP SWAP1 JUMP JUMPDEST PUSH1 0x6 DUP2 DUP2 SLOAD DUP2 LT PUSH2 0x77C JUMPI PUSH1 0x0 DUP1 REVERT JUMPDEST PUSH1 0x0 SWAP2 DUP3 MSTORE PUSH1 0x20 SWAP1 SWAP2 KECCAK256 ADD SLOAD PUSH1 0x1 PUSH1 0x1 PUSH1 0xA0 SHL SUB AND SWAP1 POP DUP2 JUMP JUMPDEST CALLER PUSH1 0x0 SWAP1 DUP2 MSTORE PUSH1 0x5 PUSH1 0x20 MSTORE PUSH1 0x40 SWAP1 KECCAK256 SLOAD PUSH2 0x7F2 JUMPI PUSH1 0x40 MLOAD PUSH3 0x461BCD PUSH1 0xE5 SHL DUP2 MSTORE PUSH1 0x20 PUSH1 0x4 DUP3 ADD MSTORE PUSH1 0x16 PUSH1 0x24 DUP3 ADD MSTORE PUSH32 0x43616C6C6572206973206E6F7420612077696E6E657200000000000000000000 PUSH1 0x44 DUP3 ADD MSTORE PUSH1 0x64 ADD PUSH2 0x484 JUMP JUMPDEST CALLER PUSH1 0x0 DUP2 DUP2 MSTORE PUSH1 0x5 PUSH1 0x20 MSTORE PUSH1 0x40 DUP1 DUP3 KECCAK256 DUP1 SLOAD SWAP1 DUP4 SWAP1 SSTORE SWAP1 MLOAD SWAP1 SWAP2 DUP4 SWAP2 DUP4 ISZERO PUSH2 0x8FC MUL SWAP2 DUP5 SWAP2 SWAP1 DUP2 DUP2 DUP2 DUP6 DUP9 DUP9 CALL SWAP4 POP POP POP POP ISZERO DUP1 ISZERO PUSH2 0x4C5 JUMPI RETURNDATASIZE PUSH1 0x0 DUP1 RETURNDATACOPY RETURNDATASIZE PUSH1 0x0 REVERT JUMPDEST PUSH2 0x848 PUSH9 0x1158E460913D00000 CALLVALUE PUSH2 0xDFC JUMP JUMPDEST ISZERO PUSH2 0x85B PUSH9 0x1158E460913D00000 PUSH2 0xBC6 JUMP JUMPDEST PUSH1 0x40 MLOAD PUSH1 0x20 ADD PUSH2 0x86B SWAP2 SWAP1 PUSH2 0xE88 JUMP JUMPDEST PUSH1 0x40 MLOAD PUSH1 0x20 DUP2 DUP4 SUB SUB DUP2 MSTORE SWAP1 PUSH1 0x40 MSTORE SWAP1 PUSH2 0x898 JUMPI PUSH1 0x40 MLOAD PUSH3 0x461BCD PUSH1 0xE5 SHL DUP2 MSTORE PUSH1 0x4 ADD PUSH2 0x484 SWAP2 SWAP1 PUSH2 0xEF4 JUMP JUMPDEST POP PUSH1 0x0 PUSH2 0x8AE PUSH9 0x1158E460913D00000 CALLVALUE PUSH2 0xE3D JUMP JUMPDEST SWAP1 POP PUSH2 0x8B8 PUSH2 0x977 JUMP JUMPDEST DUP2 GT ISZERO PUSH2 0x907 JUMPI PUSH1 0x40 MLOAD PUSH3 0x461BCD PUSH1 0xE5 SHL DUP2 MSTORE PUSH1 0x20 PUSH1 0x4 DUP3 ADD MSTORE PUSH1 0x1D PUSH1 0x24 DUP3 ADD MSTORE PUSH32 0x4E6F7420656E6F756768207469636B65747320617661696C61626C652E000000 PUSH1 0x44 DUP3 ADD MSTORE PUSH1 0x64 ADD PUSH2 0x484 JUMP JUMPDEST PUSH1 0x0 JUMPDEST DUP2 DUP2 LT ISZERO PUSH2 0x973 JUMPI PUSH1 0x6 DUP1 SLOAD PUSH1 0x1 DUP2 ADD DUP3 SSTORE PUSH1 0x0 SWAP2 SWAP1 SWAP2 MSTORE PUSH32 0xF652222313E28459528D920B65115C16C04F3EFC82AAEDC97BE59F3F377C0D3F ADD DUP1 SLOAD PUSH20 0xFFFFFFFFFFFFFFFFFFFFFFFFFFFFFFFFFFFFFFFF NOT AND CALLER OR SWAP1 SSTORE DUP1 PUSH2 0x96B DUP2 PUSH2 0xF27 JUMP JUMPDEST SWAP2 POP POP PUSH2 0x90A JUMP JUMPDEST POP POP JUMP JUMPDEST PUSH1 0x6 SLOAD PUSH1 0x0 SWAP1 PUSH2 0x988 SWAP1 PUSH1 0x19 PUSH2 0xDCD JUMP JUMPDEST SWAP1 POP SWAP1 JUMP JUMPDEST PUSH1 0x0 SLOAD TIMESTAMP LT ISZERO PUSH2 0x9DF JUMPI PUSH1 0x40 MLOAD PUSH3 0x461BCD PUSH1 0xE5 SHL DUP2 MSTORE PUSH1 0x20 PUSH1 0x4 DUP3 ADD MSTORE PUSH1 0x1B PUSH1 0x24 DUP3 ADD MSTORE PUSH32 0x746865206C6F7474657279206E6F742065787069726564207965740000000000 PUSH1 0x44 DUP3 ADD MSTORE PUSH1 0x64 ADD PUSH2 0x484 JUMP JUMPDEST PUSH1 0x0 JUMPDEST PUSH1 0x6 SLOAD DUP2 LT ISZERO PUSH2 0xAA4 JUMPI PUSH1 0x0 PUSH1 0x6 DUP3 DUP2 SLOAD DUP2 LT PUSH2 0xA01 JUMPI PUSH2 0xA01 PUSH2 0xE10 JUMP JUMPDEST PUSH1 0x0 SWAP2 DUP3 MSTORE PUSH1 0x20 DUP3 KECCAK256 ADD SLOAD PUSH1 0x6 DUP1 SLOAD PUSH1 0x1 PUSH1 0x1 PUSH1 0xA0 SHL SUB SWAP1 SWAP3 AND SWAP4 POP SWAP1 DUP5 SWAP1 DUP2 LT PUSH2 0xA2E JUMPI PUSH2 0xA2E PUSH2 0xE10 JUMP JUMPDEST PUSH1 0x0 SWAP2 DUP3 MSTORE PUSH1 0x20 DUP3 KECCAK256 ADD DUP1 SLOAD PUSH20 0xFFFFFFFFFFFFFFFFFFFFFFFFFFFFFFFFFFFFFFFF NOT AND PUSH1 0x1 PUSH1 0x1 PUSH1 0xA0 SHL SUB SWAP4 DUP5 AND OR SWAP1 SSTORE PUSH1 0x40 MLOAD SWAP2 DUP4 AND SWAP2 PUSH9 0x1158E460913D00000 SWAP1 DUP3 DUP2 DUP2 DUP2 DUP6 DUP9 DUP4 CALL SWAP4 POP POP POP POP ISZERO DUP1 ISZERO PUSH2 0xA8F JUMPI RETURNDATASIZE PUSH1 0x0 DUP1 RETURNDATACOPY RETURNDATASIZE PUSH1 0x0 REVERT JUMPDEST POP POP DUP1 DUP1 PUSH2 0xA9C SWAP1 PUSH2 0xF27 JUMP JUMPDEST SWAP2 POP POP PUSH2 0x9E2 JUMP JUMPDEST POP PUSH2 0xAB1 PUSH1 0x6 PUSH1 0x0 PUSH2 0xCE7 JUMP JUMPDEST JUMP JUMPDEST PUSH1 0x6 SLOAD PUSH1 0x0 SWAP1 PUSH2 0x988 SWAP1 PUSH9 0x1158E460913D00000 SWAP1 PUSH2 0xE26 JUMP JUMPDEST PUSH1 0x1 SLOAD PUSH1 0x1 PUSH1 0x1 PUSH1 0xA0 SHL SUB AND CALLER EQ PUSH2 0xB32 JUMPI PUSH1 0x40 MLOAD PUSH3 0x461BCD PUSH1 0xE5 SHL DUP2 MSTORE PUSH1 0x20 PUSH1 0x4 DUP3 ADD MSTORE PUSH1 0x22 PUSH1 0x24 DUP3 ADD MSTORE PUSH32 0x43616C6C6572206973206E6F7420746865206C6F7474657279206F7065726174 PUSH1 0x44 DUP3 ADD MSTORE PUSH2 0x37B9 PUSH1 0xF1 SHL PUSH1 0x64 DUP3 ADD MSTORE PUSH1 0x84 ADD PUSH2 0x484 JUMP JUMPDEST PUSH1 0x6 SLOAD ISZERO PUSH2 0xBA8 JUMPI PUSH1 0x40 MLOAD PUSH3 0x461BCD PUSH1 0xE5 SHL DUP2 MSTORE PUSH1 0x20 PUSH1 0x4 DUP3 ADD MSTORE PUSH1 0x26 PUSH1 0x24 DUP3 ADD MSTORE PUSH32 0x43616E6E6F742052657374617274204472617720617320447261772069732069 PUSH1 0x44 DUP3 ADD MSTORE PUSH32 0x6E20706C61790000000000000000000000000000000000000000000000000000 PUSH1 0x64 DUP3 ADD MSTORE PUSH1 0x84 ADD PUSH2 0x484 JUMP JUMPDEST PUSH2 0xBB4 PUSH1 0x6 PUSH1 0x0 PUSH2 0xCE7 JUMP JUMPDEST PUSH2 0xBC1 PUSH3 0x69780 TIMESTAMP PUSH2 0xE51 JUMP JUMPDEST PUSH1 0x0 SSTORE JUMP JUMPDEST PUSH1 0x60 DUP2 PUSH1 0x0 SUB PUSH2 0xBED JUMPI POP POP PUSH1 0x40 DUP1 MLOAD DUP1 DUP3 ADD SWAP1 SWAP2 MSTORE PUSH1 0x1 DUP2 MSTORE PUSH1 0x3 PUSH1 0xFC SHL PUSH1 0x20 DUP3 ADD MSTORE SWAP1 JUMP JUMPDEST DUP2 PUSH1 0x0 JUMPDEST DUP2 ISZERO PUSH2 0xC17 JUMPI DUP1 PUSH2 0xC01 DUP2 PUSH2 0xF27 JUMP JUMPDEST SWAP2 POP PUSH2 0xC10 SWAP1 POP PUSH1 0xA DUP4 PUSH2 0xE3D JUMP JUMPDEST SWAP2 POP PUSH2 0xBF1 JUMP JUMPDEST PUSH1 0x0 DUP2 PUSH8 0xFFFFFFFFFFFFFFFF DUP2 GT ISZERO PUSH2 0xC32 JUMPI PUSH2 0xC32 PUSH2 0xF40 JUMP JUMPDEST PUSH1 0x40 MLOAD SWAP1 DUP1 DUP3 MSTORE DUP1 PUSH1 0x1F ADD PUSH1 0x1F NOT AND PUSH1 0x20 ADD DUP3 ADD PUSH1 0x40 MSTORE DUP1 ISZERO PUSH2 0xC5C JUMPI PUSH1 0x20 DUP3 ADD DUP2 DUP1 CALLDATASIZE DUP4 CALLDATACOPY ADD SWAP1 POP JUMPDEST POP SWAP1 POP JUMPDEST DUP5 ISZERO PUSH2 0xCDF JUMPI PUSH2 0xC71 PUSH1 0x1 DUP4 PUSH2 0xDCD JUMP JUMPDEST SWAP2 POP PUSH2 0xC7E PUSH1 0xA DUP7 PUSH2 0xDFC JUMP JUMPDEST PUSH2 0xC89 SWAP1 PUSH1 0x30 PUSH2 0xE51 JUMP JUMPDEST PUSH1 0xF8 SHL DUP2 DUP4 DUP2 MLOAD DUP2 LT PUSH2 0xC9E JUMPI PUSH2 0xC9E PUSH2 0xE10 JUMP JUMPDEST PUSH1 0x20 ADD ADD SWAP1 PUSH31 0xFFFFFFFFFFFFFFFFFFFFFFFFFFFFFFFFFFFFFFFFFFFFFFFFFFFFFFFFFFFFFF NOT AND SWAP1 DUP2 PUSH1 0x0 BYTE SWAP1 MSTORE8 POP PUSH2 0xCD8 PUSH1 0xA DUP7 PUSH2 0xE3D JUMP JUMPDEST SWAP5 POP PUSH2 0xC60 JUMP JUMPDEST SWAP5 SWAP4 POP POP POP POP JUMP JUMPDEST POP DUP1 SLOAD PUSH1 0x0 DUP3 SSTORE SWAP1 PUSH1 0x0 MSTORE PUSH1 0x20 PUSH1 0x0 KECCAK256 SWAP1 DUP2 ADD SWAP1 PUSH2 0xD05 SWAP2 SWAP1 PUSH2 0xD08 JUMP JUMPDEST POP JUMP JUMPDEST JUMPDEST DUP1 DUP3 GT ISZERO PUSH2 0xD1D JUMPI PUSH1 0x0 DUP2 SSTORE PUSH1 0x1 ADD PUSH2 0xD09 JUMP JUMPDEST POP SWAP1 JUMP JUMPDEST PUSH1 0x20 DUP1 DUP3 MSTORE DUP3 MLOAD DUP3 DUP3 ADD DUP2 SWAP1 MSTORE PUSH1 0x0 SWAP2 SWAP1 DUP5 DUP3 ADD SWAP1 PUSH1 0x40 DUP6 ADD SWAP1 DUP5 JUMPDEST DUP2 DUP2 LT ISZERO PUSH2 0xD62 JUMPI DUP4 MLOAD PUSH1 0x1 PUSH1 0x1 PUSH1 0xA0 SHL SUB AND DUP4 MSTORE SWAP3 DUP5 ADD SWAP3 SWAP2 DUP5 ADD SWAP2 PUSH1 0x1 ADD PUSH2 0xD3D JUMP JUMPDEST POP SWAP1 SWAP7 SWAP6 POP POP POP POP POP POP JUMP JUMPDEST PUSH1 0x0 PUSH1 0x20 DUP3 DUP5 SUB SLT ISZERO PUSH2 0xD80 JUMPI PUSH1 0x0 DUP1 REVERT JUMPDEST POP CALLDATALOAD SWAP2 SWAP1 POP JUMP JUMPDEST PUSH1 0x0 PUSH1 0x20 DUP3 DUP5 SUB SLT ISZERO PUSH2 0xD99 JUMPI PUSH1 0x0 DUP1 REVERT JUMPDEST DUP2 CALLDATALOAD PUSH1 0x1 PUSH1 0x1 PUSH1 0xA0 SHL SUB DUP2 AND DUP2 EQ PUSH2 0xDB0 JUMPI PUSH1 0x0 DUP1 REVERT JUMPDEST SWAP4 SWAP3 POP POP POP JUMP JUMPDEST PUSH4 0x4E487B71 PUSH1 0xE0 SHL PUSH1 0x0 MSTORE PUSH1 0x11 PUSH1 0x4 MSTORE PUSH1 0x24 PUSH1 0x0 REVERT JUMPDEST DUP2 DUP2 SUB DUP2 DUP2 GT ISZERO PUSH2 0xDE0 JUMPI PUSH2 0xDE0 PUSH2 0xDB7 JUMP JUMPDEST SWAP3 SWAP2 POP POP JUMP JUMPDEST PUSH4 0x4E487B71 PUSH1 0xE0 SHL PUSH1 0x0 MSTORE PUSH1 0x12 PUSH1 0x4 MSTORE PUSH1 0x24 PUSH1 0x0 REVERT JUMPDEST PUSH1 0x0 DUP3 PUSH2 0xE0B JUMPI PUSH2 0xE0B PUSH2 0xDE6 JUMP JUMPDEST POP MOD SWAP1 JUMP JUMPDEST PUSH4 0x4E487B71 PUSH1 0xE0 SHL PUSH1 0x0 MSTORE PUSH1 0x32 PUSH1 0x4 MSTORE PUSH1 0x24 PUSH1 0x0 REVERT JUMPDEST DUP1 DUP3 MUL DUP2 ISZERO DUP3 DUP3 DIV DUP5 EQ OR PUSH2 0xDE0 JUMPI PUSH2 0xDE0 PUSH2 0xDB7 JUMP JUMPDEST PUSH1 0x0 DUP3 PUSH2 0xE4C JUMPI PUSH2 0xE4C PUSH2 0xDE6 JUMP JUMPDEST POP DIV SWAP1 JUMP JUMPDEST DUP1 DUP3 ADD DUP1 DUP3 GT ISZERO PUSH2 0xDE0 JUMPI PUSH2 0xDE0 PUSH2 0xDB7 JUMP JUMPDEST PUSH1 0x0 JUMPDEST DUP4 DUP2 LT ISZERO PUSH2 0xE7F JUMPI DUP2 DUP2 ADD MLOAD DUP4 DUP3 ADD MSTORE PUSH1 0x20 ADD PUSH2 0xE67 JUMP JUMPDEST POP POP PUSH1 0x0 SWAP2 ADD MSTORE JUMP JUMPDEST PUSH32 0x7468652076616C7565206D757374206265206D756C7469706C65206F66200000 DUP2 MSTORE PUSH1 0x0 DUP3 MLOAD PUSH2 0xEC0 DUP2 PUSH1 0x1E DUP6 ADD PUSH1 0x20 DUP8 ADD PUSH2 0xE64 JUMP JUMPDEST PUSH32 0x2045746865720000000000000000000000000000000000000000000000000000 PUSH1 0x1E SWAP4 SWAP1 SWAP2 ADD SWAP3 DUP4 ADD MSTORE POP PUSH1 0x24 ADD SWAP2 SWAP1 POP JUMP JUMPDEST PUSH1 0x20 DUP2 MSTORE PUSH1 0x0 DUP3 MLOAD DUP1 PUSH1 0x20 DUP5 ADD MSTORE PUSH2 0xF13 DUP2 PUSH1 0x40 DUP6 ADD PUSH1 0x20 DUP8 ADD PUSH2 0xE64 JUMP JUMPDEST PUSH1 0x1F ADD PUSH1 0x1F NOT AND SWAP2 SWAP1 SWAP2 ADD PUSH1 0x40 ADD SWAP3 SWAP2 POP POP JUMP JUMPDEST PUSH1 0x0 PUSH1 0x1 DUP3 ADD PUSH2 0xF39 JUMPI PUSH2 0xF39 PUSH2 0xDB7 JUMP JUMPDEST POP PUSH1 0x1 ADD SWAP1 JUMP JUMPDEST PUSH4 0x4E487B71 PUSH1 0xE0 SHL PUSH1 0x0 MSTORE PUSH1 0x41 PUSH1 0x4 MSTORE PUSH1 0x24 PUSH1 0x0 REVERT INVALID LOG2 PUSH5 0x6970667358 0x22 SLT KECCAK256 0xF7 0xEE 0xB5 CODESIZE TIMESTAMP CALLDATALOAD 0xF8 0xAD 0xC5 0xF9 PUSH26 0x2C981560147C82157EE8FDD3B07274B802B69E523B64736F6C63 NUMBER STOP ADDMOD GT STOP CALLER "
    },
    "gasEstimates": {
      "creation": {
        "codeDepositCost": "796000",
        "executionCost": "52261",
        "totalCost": "848261"
      },
      "external": {
        "BuyTickets()": "infinite",
        "CurrentWinningReward()": "2468",
        "DrawWinnerTicket()": "infinite",
        "IsWinner()": "2405",
        "RefundAll()": "infinite",
        "RemainingTickets()": "2472",
        "WithdrawCommission()": "infinite",
        "WithdrawWinnings()": "infinite",
        "checkWinningsAmount()": "2418",
        "duration()": "230",
        "expiration()": "2330",
        "getTickets()": "infinite",
        "getWinningsForAddress(address)": "2580",
        "lastWinner()": "2425",
        "lastWinnerAmount()": "2331",
        "lotteryOperator()": "2404",
        "maxTickets()": "251",
        "operatorTotalCommission()": "2329",
        "restartDraw()": "infinite",
        "ticketCommission()": "273",
        "ticketPrice()": "252",
        "tickets(uint256)": "4659",
        "winnings(address)": "2517"
      }
    },
    "methodIdentifiers": {
      "BuyTickets()": "91d8b14e",
      "CurrentWinningReward()": "c6944fa0",
      "DrawWinnerTicket()": "4788af7c",
      "IsWinner()": "96c85ef3",
      "RefundAll()": "a88f4672",
      "RemainingTickets()": "93a563b5",
      "WithdrawCommission()": "35580df2",
      "WithdrawWinnings()": "71827b7b",
      "checkWinningsAmount()": "0789c607",
      "duration()": "0fb5a6b4",
      "expiration()": "4665096d",
      "getTickets()": "4ed02622",
      "getWinningsForAddress(address)": "dd64e534",
      "lastWinner()": "fe188184",
      "lastWinnerAmount()": "06f7f3bf",
      "lotteryOperator()": "5a58acdd",
      "maxTickets()": "9b894703",
      "operatorTotalCommission()": "ba946d79",
      "restartDraw()": "f2613269",
      "ticketCommission()": "6032a4f9",
      "ticketPrice()": "1209b1f6",
      "tickets(uint256)": "50b44712",
      "winnings(address)": "ea3a1499"
    }
  },
  "storageLayout": {
    "storage": [
      {
        "astId": 16,
        "contract": "Lottery.sol:Lottery",
        "label": "expiration",
        "offset": 0,
        "slot": "0",
        "type": "t_uint256"
      },
      {
        "astId": 18,
        "contract": "Lottery.sol:Lottery",
        "label": "lotteryOperator",
        "offset": 0,
        "slot": "1",
        "type": "t_address"
      },
      {
        "astId": 21,
        "contract": "Lottery.sol:Lottery",
        "label": "operatorTotalCommission",
        "offset": 0,
        "slot": "2",
        "type": "t_uint256"
      },
      {
        "astId": 23,
        "contract": "Lottery.sol:Lottery",
        "label": "lastWinner",
        "offset": 0,
        "slot": "3",
        "type": "t_address"
      },
      {
        "astId": 25,
        "contract": "Lottery.sol:Lottery",
        "label": "lastWinnerAmount",
        "offset": 0,
        "slot": "4",
        "type": "t_uint256"
      },
      {
        "astId": 29,
        "contract": "Lottery.sol:Lottery",
        "label": "winnings",
        "offset": 0,
        "slot": "5",
        "type": "t_mapping(t_address,t_uint256)"
      },
      {
        "astId": 32,
        "contract": "Lottery.sol:Lottery",
        "label": "tickets",
        "offset": 0,
        "slot": "6",
        "type": "t_array(t_address)dyn_storage"
      }
    ],
    "types": {
      "t_address": {
        "encoding": "inplace",
        "label": "address",
        "numberOfBytes": "20"
      },
      "t_array(t_address)dyn_storage": {
        "base": "t_address",
        "encoding": "dynamic_array",
        "label": "address[]",
        "numberOfBytes": "32"
      },
      "t_mapping(t_address,t_uint256)": {
        "encoding": "mapping",
        "key": "t_address",
        "label": "mapping(address => uint256)",
        "numberOfBytes": "32",
        "value": "t_uint256"
      },
      "t_uint256": {
        "encoding": "inplace",
        "label": "uint256",
        "numberOfBytes": "32"
      }
    }
  },
  "userdoc": {
    "kind": "user",
    "methods": {},
    "version": 1
  }
}